{
  "contractName": "ChickenHelper",
  "abi": [
    {
      "anonymous": false,
      "inputs": [
        {
          "indexed": false,
          "internalType": "bool",
          "name": "result",
          "type": "bool"
        },
        {
          "indexed": false,
          "internalType": "string",
          "name": "resultString",
          "type": "string"
        }
      ],
      "name": "BattleResolve",
      "type": "event"
    },
    {
      "anonymous": false,
      "inputs": [
        {
          "indexed": false,
          "internalType": "uint256",
          "name": "chickenId",
          "type": "uint256"
        },
        {
          "indexed": false,
          "internalType": "string",
          "name": "name",
          "type": "string"
        },
        {
          "indexed": false,
          "internalType": "uint256",
          "name": "dna",
          "type": "uint256"
        }
      ],
      "name": "NewChicken",
      "type": "event"
    },
    {
      "anonymous": false,
      "inputs": [
        {
          "indexed": true,
          "internalType": "address",
          "name": "previousOwner",
          "type": "address"
        },
        {
          "indexed": true,
          "internalType": "address",
          "name": "newOwner",
          "type": "address"
        }
      ],
      "name": "OwnershipTransferred",
      "type": "event"
    },
    {
      "constant": false,
      "inputs": [
        {
          "internalType": "uint256",
          "name": "_firstChickenId",
          "type": "uint256"
        },
        {
          "internalType": "uint256",
          "name": "_secondChickenId",
          "type": "uint256"
        }
      ],
      "name": "breeding",
      "outputs": [],
      "payable": false,
      "stateMutability": "nonpayable",
      "type": "function"
    },
    {
      "constant": true,
      "inputs": [
        {
          "internalType": "uint256",
          "name": "",
          "type": "uint256"
        }
      ],
      "name": "chickenToOwner",
      "outputs": [
        {
          "internalType": "address",
          "name": "",
          "type": "address"
        }
      ],
      "payable": false,
      "stateMutability": "view",
      "type": "function"
    },
    {
      "constant": true,
      "inputs": [
        {
          "internalType": "uint256",
          "name": "",
          "type": "uint256"
        }
      ],
      "name": "chickens",
      "outputs": [
        {
          "internalType": "string",
          "name": "name",
          "type": "string"
        },
        {
          "internalType": "uint256",
          "name": "dna",
          "type": "uint256"
        },
        {
          "internalType": "uint32",
          "name": "level",
          "type": "uint32"
        },
        {
          "internalType": "uint32",
          "name": "readyTime",
          "type": "uint32"
        },
        {
          "internalType": "uint32",
          "name": "breedingTime",
          "type": "uint32"
        },
        {
          "internalType": "uint32",
          "name": "gestationTime",
          "type": "uint32"
        },
        {
          "internalType": "uint16",
          "name": "winCount",
          "type": "uint16"
        },
        {
          "internalType": "uint16",
          "name": "lossCount",
          "type": "uint16"
        }
      ],
      "payable": false,
      "stateMutability": "view",
      "type": "function"
    },
    {
      "constant": false,
      "inputs": [
        {
          "internalType": "string",
          "name": "_name",
          "type": "string"
        }
      ],
      "name": "createRandomChicken",
      "outputs": [],
      "payable": true,
      "stateMutability": "payable",
      "type": "function"
    },
    {
      "constant": true,
      "inputs": [
        {
          "internalType": "uint256",
          "name": "_id",
          "type": "uint256"
        }
      ],
      "name": "getChickenFromId",
      "outputs": [
        {
          "internalType": "string",
          "name": "name",
          "type": "string"
        },
        {
          "internalType": "uint256",
          "name": "dna",
          "type": "uint256"
        },
        {
          "internalType": "uint256",
          "name": "level",
          "type": "uint256"
        },
        {
          "internalType": "uint256",
          "name": "readyTime",
          "type": "uint256"
        },
        {
          "internalType": "uint256",
          "name": "winCount",
          "type": "uint256"
        },
        {
          "internalType": "uint256",
          "name": "lossCount",
          "type": "uint256"
        },
        {
          "internalType": "uint256",
          "name": "breedingTime",
          "type": "uint256"
        },
        {
          "internalType": "uint256",
          "name": "gestationTime",
          "type": "uint256"
        }
      ],
      "payable": false,
      "stateMutability": "view",
      "type": "function"
    },
    {
      "constant": true,
      "inputs": [],
      "name": "getChickenLength",
      "outputs": [
        {
          "internalType": "uint256",
          "name": "",
          "type": "uint256"
        }
      ],
      "payable": false,
      "stateMutability": "view",
      "type": "function"
    },
    {
      "constant": true,
      "inputs": [],
      "name": "getCreateChickenFee",
      "outputs": [
        {
          "internalType": "uint256",
          "name": "",
          "type": "uint256"
        }
      ],
      "payable": false,
      "stateMutability": "view",
      "type": "function"
    },
    {
      "constant": true,
      "inputs": [],
      "name": "getRewards",
      "outputs": [
        {
          "internalType": "uint256",
          "name": "",
          "type": "uint256"
        }
      ],
      "payable": false,
      "stateMutability": "view",
      "type": "function"
    },
    {
      "constant": true,
      "inputs": [],
      "name": "getTime",
      "outputs": [
        {
          "internalType": "uint256",
          "name": "",
          "type": "uint256"
        }
      ],
      "payable": false,
      "stateMutability": "view",
      "type": "function"
    },
    {
      "constant": true,
      "inputs": [],
      "name": "isOwner",
      "outputs": [
        {
          "internalType": "bool",
          "name": "",
          "type": "bool"
        }
      ],
      "payable": false,
      "stateMutability": "view",
      "type": "function"
    },
    {
      "constant": true,
      "inputs": [],
      "name": "owner",
      "outputs": [
        {
          "internalType": "address payable",
          "name": "",
          "type": "address"
        }
      ],
      "payable": false,
      "stateMutability": "view",
      "type": "function"
    },
    {
      "constant": false,
      "inputs": [],
      "name": "renounceOwnership",
      "outputs": [],
      "payable": false,
      "stateMutability": "nonpayable",
      "type": "function"
    },
    {
      "constant": false,
      "inputs": [
        {
          "internalType": "uint256",
          "name": "_fee",
          "type": "uint256"
        }
      ],
      "name": "setCreateChickenFee",
      "outputs": [],
      "payable": false,
      "stateMutability": "nonpayable",
      "type": "function"
    },
    {
      "constant": false,
      "inputs": [
        {
          "internalType": "uint256",
          "name": "_rewards",
          "type": "uint256"
        }
      ],
      "name": "setRewards",
      "outputs": [],
      "payable": false,
      "stateMutability": "nonpayable",
      "type": "function"
    },
    {
      "constant": false,
      "inputs": [
        {
          "internalType": "address payable",
          "name": "newOwner",
          "type": "address"
        }
      ],
      "name": "transferOwnership",
      "outputs": [],
      "payable": false,
      "stateMutability": "nonpayable",
      "type": "function"
    },
    {
      "constant": false,
      "inputs": [],
      "name": "withdraw",
      "outputs": [],
      "payable": false,
      "stateMutability": "nonpayable",
      "type": "function"
    },
    {
      "constant": true,
      "inputs": [
        {
          "internalType": "address",
          "name": "_owner",
          "type": "address"
        }
      ],
      "name": "getWithdrawalBalance",
      "outputs": [
        {
          "internalType": "uint256",
          "name": "",
          "type": "uint256"
        }
      ],
      "payable": false,
      "stateMutability": "view",
      "type": "function"
    },
    {
      "constant": false,
      "inputs": [
        {
          "internalType": "address",
          "name": "user",
          "type": "address"
        }
      ],
      "name": "withdrawUser",
      "outputs": [],
      "payable": false,
      "stateMutability": "nonpayable",
      "type": "function"
    },
    {
      "constant": false,
      "inputs": [
        {
          "internalType": "uint256",
          "name": "_fee",
          "type": "uint256"
        }
      ],
      "name": "setLevelUpFee",
      "outputs": [],
      "payable": false,
      "stateMutability": "nonpayable",
      "type": "function"
    },
    {
      "constant": false,
      "inputs": [
        {
          "internalType": "uint256",
          "name": "_chickenId",
          "type": "uint256"
        }
      ],
      "name": "levelUp",
      "outputs": [],
      "payable": true,
      "stateMutability": "payable",
      "type": "function"
    },
    {
      "constant": false,
      "inputs": [
        {
          "internalType": "uint256",
          "name": "_chickenId",
          "type": "uint256"
        },
        {
          "internalType": "string",
          "name": "_newName",
          "type": "string"
        }
      ],
      "name": "changeName",
      "outputs": [],
      "payable": false,
      "stateMutability": "nonpayable",
      "type": "function"
    },
    {
      "constant": false,
      "inputs": [
        {
          "internalType": "uint256",
          "name": "_chickenId",
          "type": "uint256"
        },
        {
          "internalType": "uint256",
          "name": "_newDna",
          "type": "uint256"
        }
      ],
      "name": "changeDna",
      "outputs": [],
      "payable": false,
      "stateMutability": "nonpayable",
      "type": "function"
    },
    {
      "constant": true,
      "inputs": [
        {
          "internalType": "address",
          "name": "_owner",
          "type": "address"
        }
      ],
      "name": "getChickensByOwner",
      "outputs": [
        {
          "internalType": "uint256[]",
          "name": "",
          "type": "uint256[]"
        }
      ],
      "payable": false,
      "stateMutability": "view",
      "type": "function"
    },
    {
      "constant": true,
      "inputs": [],
      "name": "getFeeLevelUpFee",
      "outputs": [
        {
          "internalType": "uint256",
          "name": "",
          "type": "uint256"
        }
      ],
      "payable": false,
      "stateMutability": "view",
      "type": "function"
    }
  ],
  "bytecode": "0x60806040526010600155600154600a0a600255620151806003556203f4806004556202a30060055566038d7ea4c68000600655662386f26fc1000060075566038d7ea4c68000600c55336000806101000a81548173ffffffffffffffffffffffffffffffffffffffff021916908373ffffffffffffffffffffffffffffffffffffffff1602179055506000809054906101000a900473ffffffffffffffffffffffffffffffffffffffff1673ffffffffffffffffffffffffffffffffffffffff16600073ffffffffffffffffffffffffffffffffffffffff167f8be0079c531659141344cd1fd0a4f28419497f9722a3daafe3b4186f6b6457e060405160405180910390a361232c806101136000396000f3fe60806040526004361061014b5760003560e01c8063bb2f642d116100b6578063d8f7d3341161006f578063d8f7d334146106e5578063e33d878d146107ca578063e8c07ad0146107f5578063f2fde38b14610870578063f7b168ec146108c1578063fbbe20a91461097c5761014b565b8063bb2f642d146104ee578063c39cbef114610529578063c598b563146105b9578063c7a29c6f1461061e578063ccf670f814610659578063d02db052146106945761014b565b80635faf2880116101085780635faf288014610241578063715018a6146102865780638da5cb5b1461029d5780638f32d59b146102f45780638fa07c4814610323578063aa723c82146104485761014b565b80630572b0cc146101505780630ce90ec21461017b5780633bc18e68146101a95780633ccfd60b146101d45780634827fa80146101eb578063557ed1ba14610216575b600080fd5b34801561015c57600080fd5b506101656109c1565b6040518082815260200191505060405180910390f35b6101a76004803603602081101561019157600080fd5b81019080803590602001909291905050506109cb565b005b3480156101b557600080fd5b506101be610b7a565b6040518082815260200191505060405180910390f35b3480156101e057600080fd5b506101e9610b87565b005b3480156101f757600080fd5b50610200610bee565b6040518082815260200191505060405180910390f35b34801561022257600080fd5b5061022b610bf8565b6040518082815260200191505060405180910390f35b34801561024d57600080fd5b506102846004803603604081101561026457600080fd5b810190808035906020019092919080359060200190929190505050610c00565b005b34801561029257600080fd5b5061029b610cda565b005b3480156102a957600080fd5b506102b2610daa565b604051808273ffffffffffffffffffffffffffffffffffffffff1673ffffffffffffffffffffffffffffffffffffffff16815260200191505060405180910390f35b34801561030057600080fd5b50610309610dd3565b604051808215151515815260200191505060405180910390f35b34801561032f57600080fd5b5061035c6004803603602081101561034657600080fd5b8101908080359060200190929190505050610e2a565b60405180806020018981526020018863ffffffff1663ffffffff1681526020018763ffffffff1663ffffffff1681526020018663ffffffff1663ffffffff1681526020018563ffffffff1663ffffffff1681526020018461ffff1661ffff1681526020018361ffff1661ffff16815260200182810382528a818151815260200191508051906020019080838360005b838110156104065780820151818401526020810190506103eb565b50505050905090810190601f1680156104335780820380516001836020036101000a031916815260200191505b50995050505050505050505060405180910390f35b34801561045457600080fd5b506104976004803603602081101561046b57600080fd5b81019080803573ffffffffffffffffffffffffffffffffffffffff169060200190929190505050610f73565b6040518080602001828103825283818151815260200191508051906020019060200280838360005b838110156104da5780820151818401526020810190506104bf565b505050509050019250505060405180910390f35b3480156104fa57600080fd5b506105276004803603602081101561051157600080fd5b81019080803590602001909291905050506110a0565b005b34801561053557600080fd5b506105b76004803603604081101561054c57600080fd5b81019080803590602001909291908035906020019064010000000081111561057357600080fd5b82018360208201111561058557600080fd5b803590602001918460018302840111640100000000831117156105a757600080fd5b90919293919293905050506110bb565b005b3480156105c557600080fd5b50610608600480360360208110156105dc57600080fd5b81019080803573ffffffffffffffffffffffffffffffffffffffff1690602001909291905050506111a1565b6040518082815260200191505060405180910390f35b34801561062a57600080fd5b506106576004803603602081101561064157600080fd5b81019080803590602001909291905050506111ea565b005b34801561066557600080fd5b506106926004803603602081101561067c57600080fd5b8101908080359060200190929190505050611205565b005b3480156106a057600080fd5b506106e3600480360360208110156106b757600080fd5b81019080803573ffffffffffffffffffffffffffffffffffffffff169060200190929190505050611220565b005b3480156106f157600080fd5b5061071e6004803603602081101561070857600080fd5b810190808035906020019092919050505061136a565b604051808060200189815260200188815260200187815260200186815260200185815260200184815260200183815260200182810382528a818151815260200191508051906020019080838360005b8381101561078857808201518184015260208101905061076d565b50505050905090810190601f1680156107b55780820380516001836020036101000a031916815260200191505b50995050505050505050505060405180910390f35b3480156107d657600080fd5b506107df6115b6565b6040518082815260200191505060405180910390f35b34801561080157600080fd5b5061082e6004803603602081101561081857600080fd5b81019080803590602001909291905050506115c0565b604051808273ffffffffffffffffffffffffffffffffffffffff1673ffffffffffffffffffffffffffffffffffffffff16815260200191505060405180910390f35b34801561087c57600080fd5b506108bf6004803603602081101561089357600080fd5b81019080803573ffffffffffffffffffffffffffffffffffffffff1690602001909291905050506115f3565b005b61097a600480360360208110156108d757600080fd5b81019080803590602001906401000000008111156108f457600080fd5b82018360208201111561090657600080fd5b8035906020019184600183028401116401000000008311171561092857600080fd5b91908080601f016020809104026020016040519081016040528093929190818152602001838380828437600081840152601f19601f820116905080830192505050505050509192919290505050611610565b005b34801561098857600080fd5b506109bf6004803603604081101561099f57600080fd5b810190808035906020019092919080359060200190929190505050611695565b005b6000600654905090565b6000600882815481106109da57fe5b906000526020600020906003020190504281600201600c9054906101000a900463ffffffff1663ffffffff161115610a1157600080fd5b600c54341015610a2057600080fd5b6000610a386003600c5461185790919063ffffffff16565b90506000610a526005600c5461185790919063ffffffff16565b905081341015610ab157610a8a60018460020160009054906101000a900463ffffffff1663ffffffff1661188e90919063ffffffff16565b8360020160006101000a81548163ffffffff021916908363ffffffff160217905550610b74565b813410158015610ac057508034105b15610b1a57610af360038460020160009054906101000a900463ffffffff1663ffffffff1661188e90919063ffffffff16565b8360020160006101000a81548163ffffffff021916908363ffffffff160217905550610b73565b803410610b7257610b4f60058460020160009054906101000a900463ffffffff1663ffffffff1661188e90919063ffffffff16565b8360020160006101000a81548163ffffffff021916908363ffffffff1602179055505b5b5b50505050565b6000600880549050905090565b610b8f610dd3565b610b9857600080fd5b6000610ba2610daa565b90508073ffffffffffffffffffffffffffffffffffffffff166108fc479081150290604051600060405180830381858888f19350505050158015610bea573d6000803e3d6000fd5b5050565b6000600c54905090565b600042905090565b6014828160088281548110610c1157fe5b906000526020600020906003020160020160009054906101000a900463ffffffff1663ffffffff161015610c4457600080fd5b836009600082815260200190815260200160002060009054906101000a900473ffffffffffffffffffffffffffffffffffffffff1673ffffffffffffffffffffffffffffffffffffffff163373ffffffffffffffffffffffffffffffffffffffff1614610cb057600080fd5b8360088681548110610cbe57fe5b9060005260206000209060030201600101819055505050505050565b610ce2610dd3565b610ceb57600080fd5b600073ffffffffffffffffffffffffffffffffffffffff166000809054906101000a900473ffffffffffffffffffffffffffffffffffffffff1673ffffffffffffffffffffffffffffffffffffffff167f8be0079c531659141344cd1fd0a4f28419497f9722a3daafe3b4186f6b6457e060405160405180910390a360008060006101000a81548173ffffffffffffffffffffffffffffffffffffffff021916908373ffffffffffffffffffffffffffffffffffffffff160217905550565b60008060009054906101000a900473ffffffffffffffffffffffffffffffffffffffff16905090565b60008060009054906101000a900473ffffffffffffffffffffffffffffffffffffffff1673ffffffffffffffffffffffffffffffffffffffff163373ffffffffffffffffffffffffffffffffffffffff1614905090565b60088181548110610e3757fe5b9060005260206000209060030201600091509050806000018054600181600116156101000203166002900480601f016020809104026020016040519081016040528092919081815260200182805460018160011615610100020316600290048015610ee35780601f10610eb857610100808354040283529160200191610ee3565b820191906000526020600020905b815481529060010190602001808311610ec657829003601f168201915b5050505050908060010154908060020160009054906101000a900463ffffffff16908060020160049054906101000a900463ffffffff16908060020160089054906101000a900463ffffffff169080600201600c9054906101000a900463ffffffff16908060020160109054906101000a900461ffff16908060020160129054906101000a900461ffff16905088565b606080600a60008473ffffffffffffffffffffffffffffffffffffffff1673ffffffffffffffffffffffffffffffffffffffff16815260200190815260200160002054604051908082528060200260200182016040528015610fe45781602001602082028038833980820191505090505b509050600080905060008090505b600880549050811015611095578473ffffffffffffffffffffffffffffffffffffffff166009600083815260200190815260200160002060009054906101000a900473ffffffffffffffffffffffffffffffffffffffff1673ffffffffffffffffffffffffffffffffffffffff161415611088578083838151811061107357fe5b60200260200101818152505081806001019250505b8080600101915050610ff2565b508192505050919050565b6110a8610dd3565b6110b157600080fd5b8060078190555050565b60028381600882815481106110cc57fe5b906000526020600020906003020160020160009054906101000a900463ffffffff1663ffffffff1610156110ff57600080fd5b846009600082815260200190815260200160002060009054906101000a900473ffffffffffffffffffffffffffffffffffffffff1673ffffffffffffffffffffffffffffffffffffffff163373ffffffffffffffffffffffffffffffffffffffff161461116b57600080fd5b84846008888154811061117a57fe5b9060005260206000209060030201600001919061119892919061216d565b50505050505050565b6000600b60008373ffffffffffffffffffffffffffffffffffffffff1673ffffffffffffffffffffffffffffffffffffffff168152602001908152602001600020549050919050565b6111f2610dd3565b6111fb57600080fd5b8060068190555050565b61120d610dd3565b61121657600080fd5b80600c8190555050565b8073ffffffffffffffffffffffffffffffffffffffff163373ffffffffffffffffffffffffffffffffffffffff161461125857600080fd5b60003390506000600b60003373ffffffffffffffffffffffffffffffffffffffff1673ffffffffffffffffffffffffffffffffffffffff1681526020019081526020016000205490506000600b60003373ffffffffffffffffffffffffffffffffffffffff1673ffffffffffffffffffffffffffffffffffffffff168152602001908152602001600020819055508173ffffffffffffffffffffffffffffffffffffffff166108fc829081150290604051600060405180830381858888f19350505050611365576000600b60003373ffffffffffffffffffffffffffffffffffffffff1673ffffffffffffffffffffffffffffffffffffffff168152602001908152602001600020819055505b505050565b60606000806000806000806000600880549050891061138857600080fd5b6113906121ed565b60088a8154811061139d57fe5b906000526020600020906003020160405180610100016040529081600082018054600181600116156101000203166002900480601f0160208091040260200160405190810160405280929190818152602001828054600181600116156101000203166002900480156114505780601f1061142557610100808354040283529160200191611450565b820191906000526020600020905b81548152906001019060200180831161143357829003601f168201915b50505050508152602001600182015481526020016002820160009054906101000a900463ffffffff1663ffffffff1663ffffffff1681526020016002820160049054906101000a900463ffffffff1663ffffffff1663ffffffff1681526020016002820160089054906101000a900463ffffffff1663ffffffff1663ffffffff16815260200160028201600c9054906101000a900463ffffffff1663ffffffff1663ffffffff1681526020016002820160109054906101000a900461ffff1661ffff1661ffff1681526020016002820160129054906101000a900461ffff1661ffff1661ffff1681525050905080600001518160200151826040015183606001518460c001518560e0015186608001518760a001518797508563ffffffff1695508463ffffffff1694508361ffff1693508261ffff1692508163ffffffff1691508063ffffffff1690509850985098509850985098509850985050919395975091939597565b6000600754905090565b60096020528060005260406000206000915054906101000a900473ffffffffffffffffffffffffffffffffffffffff1681565b6115fb610dd3565b61160457600080fd5b61160d816118b6565b50565b600754341461161e57600080fd5b6002600a60003373ffffffffffffffffffffffffffffffffffffffff1673ffffffffffffffffffffffffffffffffffffffff16815260200190815260200160002054111561166b57600080fd5b6000611676826119ae565b90506064818161168257fe5b06810390506116918282611a3c565b5050565b816009600082815260200190815260200160002060009054906101000a900473ffffffffffffffffffffffffffffffffffffffff1673ffffffffffffffffffffffffffffffffffffffff163373ffffffffffffffffffffffffffffffffffffffff161461170157600080fd5b816009600082815260200190815260200160002060009054906101000a900473ffffffffffffffffffffffffffffffffffffffff1673ffffffffffffffffffffffffffffffffffffffff163373ffffffffffffffffffffffffffffffffffffffff161461176d57600080fd5b8284141561177a57600080fd5b60006008858154811061178957fe5b906000526020600020906003020190506000600885815481106117a857fe5b906000526020600020906003020190506117c182611d71565b80156117d257506117d181611d71565b5b6117db57600080fd5b60006002548260010154816117ec57fe5b06905060006002828560010154018161180157fe5b0490506118436040518060400160405280600a81526020017f4e6577436869636b656e0000000000000000000000000000000000000000000081525082611dbe565b61184d84846120ff565b5050505050505050565b60008083141561186a5760009050611888565b600082840290508284828161187b57fe5b041461188357fe5b809150505b92915050565b60008082840190508363ffffffff168163ffffffff1610156118ac57fe5b8091505092915050565b600073ffffffffffffffffffffffffffffffffffffffff168173ffffffffffffffffffffffffffffffffffffffff1614156118f057600080fd5b8073ffffffffffffffffffffffffffffffffffffffff166000809054906101000a900473ffffffffffffffffffffffffffffffffffffffff1673ffffffffffffffffffffffffffffffffffffffff167f8be0079c531659141344cd1fd0a4f28419497f9722a3daafe3b4186f6b6457e060405160405180910390a3806000806101000a81548173ffffffffffffffffffffffffffffffffffffffff021916908373ffffffffffffffffffffffffffffffffffffffff16021790555050565b600080826040516020018082805190602001908083835b602083106119e857805182526020820191506020810190506020830392506119c5565b6001836020036101000a0380198251168184511680821785525050505050509050019150506040516020818303038152906040528051906020012060001c90506002548181611a3357fe5b06915050919050565b600060016008604051806101000160405280868152602001858152602001600163ffffffff1681526020014263ffffffff1681526020014263ffffffff1681526020014263ffffffff168152602001600061ffff168152602001600061ffff16815250908060018154018082558091505090600182039060005260206000209060030201600090919290919091506000820151816000019080519060200190611ae6929190612252565b506020820151816001015560408201518160020160006101000a81548163ffffffff021916908363ffffffff16021790555060608201518160020160046101000a81548163ffffffff021916908363ffffffff16021790555060808201518160020160086101000a81548163ffffffff021916908363ffffffff16021790555060a082015181600201600c6101000a81548163ffffffff021916908363ffffffff16021790555060c08201518160020160106101000a81548161ffff021916908361ffff16021790555060e08201518160020160126101000a81548161ffff021916908361ffff1602179055505050039050336009600083815260200190815260200160002060006101000a81548173ffffffffffffffffffffffffffffffffffffffff021916908373ffffffffffffffffffffffffffffffffffffffff160217905550611c7d6001600a60003373ffffffffffffffffffffffffffffffffffffffff1673ffffffffffffffffffffffffffffffffffffffff1681526020019081526020016000205461215190919063ffffffff16565b600a60003373ffffffffffffffffffffffffffffffffffffffff1673ffffffffffffffffffffffffffffffffffffffff168152602001908152602001600020819055507f1f0245df64b6ba504325be583e0ea6746dcc8043b3cd2e50f4a45558d0f47af38184846040518084815260200180602001838152602001828103825284818151815260200191508051906020019080838360005b83811015611d30578082015181840152602081019050611d15565b50505050905090810190601f168015611d5d5780820380516001836020036101000a031916815260200191505b5094505050505060405180910390a1505050565b6000428260020160089054906101000a900463ffffffff1663ffffffff1611158015611db757504282600201600c9054906101000a900463ffffffff1663ffffffff1611155b9050919050565b600060016008604051806101000160405280868152602001858152602001600163ffffffff168152602001600554420163ffffffff168152602001600554420163ffffffff168152602001600554420163ffffffff168152602001600061ffff168152602001600061ffff16815250908060018154018082558091505090600182039060005260206000209060030201600090919290919091506000820151816000019080519060200190611e74929190612252565b506020820151816001015560408201518160020160006101000a81548163ffffffff021916908363ffffffff16021790555060608201518160020160046101000a81548163ffffffff021916908363ffffffff16021790555060808201518160020160086101000a81548163ffffffff021916908363ffffffff16021790555060a082015181600201600c6101000a81548163ffffffff021916908363ffffffff16021790555060c08201518160020160106101000a81548161ffff021916908361ffff16021790555060e08201518160020160126101000a81548161ffff021916908361ffff1602179055505050039050336009600083815260200190815260200160002060006101000a81548173ffffffffffffffffffffffffffffffffffffffff021916908373ffffffffffffffffffffffffffffffffffffffff16021790555061200b6001600a60003373ffffffffffffffffffffffffffffffffffffffff1673ffffffffffffffffffffffffffffffffffffffff1681526020019081526020016000205461215190919063ffffffff16565b600a60003373ffffffffffffffffffffffffffffffffffffffff1673ffffffffffffffffffffffffffffffffffffffff168152602001908152602001600020819055507f1f0245df64b6ba504325be583e0ea6746dcc8043b3cd2e50f4a45558d0f47af38184846040518084815260200180602001838152602001828103825284818151815260200191508051906020019080838360005b838110156120be5780820151818401526020810190506120a3565b50505050905090810190601f1680156120eb5780820380516001836020036101000a031916815260200191505b5094505050505060405180910390a1505050565b60045442018260020160086101000a81548163ffffffff021916908363ffffffff16021790555060045442018160020160086101000a81548163ffffffff021916908363ffffffff1602179055505050565b60008082840190508381101561216357fe5b8091505092915050565b828054600181600116156101000203166002900490600052602060002090601f016020900481019282601f106121ae57803560ff19168380011785556121dc565b828001600101855582156121dc579182015b828111156121db5782358255916020019190600101906121c0565b5b5090506121e991906122d2565b5090565b6040518061010001604052806060815260200160008152602001600063ffffffff168152602001600063ffffffff168152602001600063ffffffff168152602001600063ffffffff168152602001600061ffff168152602001600061ffff1681525090565b828054600181600116156101000203166002900490600052602060002090601f016020900481019282601f1061229357805160ff19168380011785556122c1565b828001600101855582156122c1579182015b828111156122c05782518255916020019190600101906122a5565b5b5090506122ce91906122d2565b5090565b6122f491905b808211156122f05760008160009055506001016122d8565b5090565b9056fea265627a7a72315820e700ec2b5e37849153aef5a10f6f3e709ece5b49bf2022ddcfc89f128c1cddc964736f6c63430005100032",
  "source": "//SPDX-License-Identifier: MIT\r\npragma solidity >=0.5.0 <0.6.0;\r\n\r\nimport \"./chickenbreeding.sol\";\r\n\r\ncontract ChickenHelper is ChickenBreeding {\r\n    uint levelUpFee = 0.001 ether;\r\n\r\n    modifier aboveLevel(uint _level, uint _chickenId) {\r\n        require(chickens[_chickenId].level >= _level);\r\n        _;\r\n    }\r\n\r\n    function withdraw() external onlyOwner {\r\n        address payable _owner = owner();\r\n        _owner.transfer(address(this).balance);\r\n    }\r\n\r\n    \r\n    function getWithdrawalBalance(address _owner)\r\n        external\r\n        view\r\n        returns (uint256)\r\n    {\r\n        return pendingWithdraws[_owner];\r\n    }\r\n\r\n    function withdrawUser(address user) external {\r\n        require(msg.sender == user);\r\n        address payable _user = msg.sender;\r\n        uint amount = pendingWithdraws[msg.sender];\r\n        pendingWithdraws[msg.sender] = 0;\r\n        if (!_user.send(amount)) {\r\n            pendingWithdraws[msg.sender] = 0;\r\n        }\r\n    }\r\n\r\n    function setLevelUpFee(uint _fee) external onlyOwner {\r\n        levelUpFee = _fee;\r\n    }\r\n\r\n    function levelUp(uint _chickenId) external payable {\r\n        Chicken storage chicken = chickens[_chickenId];\r\n        require(chicken.gestationTime <= now);\r\n        require(msg.value >= levelUpFee);\r\n        uint fee3 = levelUpFee.mul(3);\r\n        uint fee5 = levelUpFee.mul(5);\r\n        if (msg.value < fee3) chicken.level = chicken.level.add(1);\r\n        else if (msg.value >= fee3 && msg.value < fee5)\r\n            chicken.level = chicken.level.add(3);\r\n        else if (msg.value >= fee5) chicken.level = chicken.level.add(5);\r\n    }\r\n\r\n    function changeName(uint _chickenId, string calldata _newName)\r\n        external\r\n        aboveLevel(2, _chickenId)\r\n        onlyOwnerOf(_chickenId)\r\n    {\r\n        chickens[_chickenId].name = _newName;\r\n    }\r\n\r\n    function changeDna(uint _chickenId, uint _newDna)\r\n        external\r\n        aboveLevel(20, _chickenId)\r\n        onlyOwnerOf(_chickenId)\r\n    {\r\n        chickens[_chickenId].dna = _newDna;\r\n    }\r\n\r\n    function getChickensByOwner(address _owner)\r\n        external\r\n        view\r\n        returns (uint[] memory)\r\n    {\r\n        uint[] memory result = new uint[](ownerChickenCount[_owner]);\r\n        uint counter = 0;\r\n        for (uint i = 0; i < chickens.length; i++) {\r\n            if (chickenToOwner[i] == _owner) {\r\n                result[counter] = i;\r\n                counter++;\r\n            }\r\n        }\r\n        return result;\r\n    }\r\n\r\n    function getFeeLevelUpFee() public view returns (uint) {\r\n        return levelUpFee;\r\n    }\r\n}\r\n",
  "sourcePath": "C:\\Users\\sgs98\\Desktop\\ei\\CryptoChickens\\client\\contracts\\chickenhelper.sol",
  "compiler": {
    "name": "solc",
    "version": "0.5.16+commit.9c3226ce.Emscripten.clang"
  },
  "schemaVersion": "3.4.9",
  "updatedAt": "2022-08-31T09:20:01.736Z",
  "devdoc": {
    "methods": {
      "isOwner()": {
        "return": "true if `msg.sender` is the owner of the contract."
      },
      "owner()": {
        "return": "the address of the owner."
      },
      "renounceOwnership()": {
        "details": "Allows the current owner to relinquish control of the contract."
      },
      "transferOwnership(address)": {
        "details": "Allows the current owner to transfer control of the contract to a newOwner.",
        "params": {
          "newOwner": "The address to transfer ownership to."
        }
      }
    }
  },
  "userdoc": {
    "methods": {
      "renounceOwnership()": {
        "notice": "Renouncing to ownership will leave the contract without an owner. It will not be possible to call the functions with the `onlyOwner` modifier anymore."
      }
    }
  }
}