{
  "contractName": "ChickenAttack",
  "abi": [
    {
      "anonymous": false,
      "inputs": [
        {
          "indexed": false,
          "internalType": "bool",
          "name": "result",
          "type": "bool"
        },
        {
          "indexed": false,
          "internalType": "string",
          "name": "resultString",
          "type": "string"
        }
      ],
      "name": "BattleResolve",
      "type": "event"
    },
    {
      "anonymous": false,
      "inputs": [
        {
          "indexed": false,
          "internalType": "uint256",
          "name": "chickenId",
          "type": "uint256"
        },
        {
          "indexed": false,
          "internalType": "string",
          "name": "name",
          "type": "string"
        },
        {
          "indexed": false,
          "internalType": "uint256",
          "name": "dna",
          "type": "uint256"
        }
      ],
      "name": "NewChicken",
      "type": "event"
    },
    {
      "anonymous": false,
      "inputs": [
        {
          "indexed": true,
          "internalType": "address",
          "name": "previousOwner",
          "type": "address"
        },
        {
          "indexed": true,
          "internalType": "address",
          "name": "newOwner",
          "type": "address"
        }
      ],
      "name": "OwnershipTransferred",
      "type": "event"
    },
    {
      "constant": false,
      "inputs": [
        {
          "internalType": "uint256",
          "name": "_firstChickenId",
          "type": "uint256"
        },
        {
          "internalType": "uint256",
          "name": "_secondChickenId",
          "type": "uint256"
        }
      ],
      "name": "breeding",
      "outputs": [],
      "payable": false,
      "stateMutability": "nonpayable",
      "type": "function"
    },
    {
      "constant": false,
      "inputs": [
        {
          "internalType": "uint256",
          "name": "_chickenId",
          "type": "uint256"
        },
        {
          "internalType": "uint256",
          "name": "_newDna",
          "type": "uint256"
        }
      ],
      "name": "changeDna",
      "outputs": [],
      "payable": false,
      "stateMutability": "nonpayable",
      "type": "function"
    },
    {
      "constant": false,
      "inputs": [
        {
          "internalType": "uint256",
          "name": "_chickenId",
          "type": "uint256"
        },
        {
          "internalType": "string",
          "name": "_newName",
          "type": "string"
        }
      ],
      "name": "changeName",
      "outputs": [],
      "payable": false,
      "stateMutability": "nonpayable",
      "type": "function"
    },
    {
      "constant": true,
      "inputs": [
        {
          "internalType": "uint256",
          "name": "",
          "type": "uint256"
        }
      ],
      "name": "chickenToOwner",
      "outputs": [
        {
          "internalType": "address",
          "name": "",
          "type": "address"
        }
      ],
      "payable": false,
      "stateMutability": "view",
      "type": "function"
    },
    {
      "constant": true,
      "inputs": [
        {
          "internalType": "uint256",
          "name": "",
          "type": "uint256"
        }
      ],
      "name": "chickens",
      "outputs": [
        {
          "internalType": "string",
          "name": "name",
          "type": "string"
        },
        {
          "internalType": "uint256",
          "name": "dna",
          "type": "uint256"
        },
        {
          "internalType": "uint32",
          "name": "level",
          "type": "uint32"
        },
        {
          "internalType": "uint32",
          "name": "readyTime",
          "type": "uint32"
        },
        {
          "internalType": "uint32",
          "name": "breedingTime",
          "type": "uint32"
        },
        {
          "internalType": "uint32",
          "name": "gestationTime",
          "type": "uint32"
        },
        {
          "internalType": "uint16",
          "name": "winCount",
          "type": "uint16"
        },
        {
          "internalType": "uint16",
          "name": "lossCount",
          "type": "uint16"
        }
      ],
      "payable": false,
      "stateMutability": "view",
      "type": "function"
    },
    {
      "constant": false,
      "inputs": [
        {
          "internalType": "string",
          "name": "_name",
          "type": "string"
        }
      ],
      "name": "createRandomChicken",
      "outputs": [],
      "payable": true,
      "stateMutability": "payable",
      "type": "function"
    },
    {
      "constant": true,
      "inputs": [
        {
          "internalType": "uint256",
          "name": "_id",
          "type": "uint256"
        }
      ],
      "name": "getChickenFromId",
      "outputs": [
        {
          "internalType": "string",
          "name": "name",
          "type": "string"
        },
        {
          "internalType": "uint256",
          "name": "dna",
          "type": "uint256"
        },
        {
          "internalType": "uint256",
          "name": "level",
          "type": "uint256"
        },
        {
          "internalType": "uint256",
          "name": "readyTime",
          "type": "uint256"
        },
        {
          "internalType": "uint256",
          "name": "winCount",
          "type": "uint256"
        },
        {
          "internalType": "uint256",
          "name": "lossCount",
          "type": "uint256"
        },
        {
          "internalType": "uint256",
          "name": "breedingTime",
          "type": "uint256"
        },
        {
          "internalType": "uint256",
          "name": "gestationTime",
          "type": "uint256"
        }
      ],
      "payable": false,
      "stateMutability": "view",
      "type": "function"
    },
    {
      "constant": true,
      "inputs": [],
      "name": "getChickenLength",
      "outputs": [
        {
          "internalType": "uint256",
          "name": "",
          "type": "uint256"
        }
      ],
      "payable": false,
      "stateMutability": "view",
      "type": "function"
    },
    {
      "constant": true,
      "inputs": [
        {
          "internalType": "address",
          "name": "_owner",
          "type": "address"
        }
      ],
      "name": "getChickensByOwner",
      "outputs": [
        {
          "internalType": "uint256[]",
          "name": "",
          "type": "uint256[]"
        }
      ],
      "payable": false,
      "stateMutability": "view",
      "type": "function"
    },
    {
      "constant": true,
      "inputs": [],
      "name": "getCreateChickenFee",
      "outputs": [
        {
          "internalType": "uint256",
          "name": "",
          "type": "uint256"
        }
      ],
      "payable": false,
      "stateMutability": "view",
      "type": "function"
    },
    {
      "constant": true,
      "inputs": [],
      "name": "getFeeLevelUpFee",
      "outputs": [
        {
          "internalType": "uint256",
          "name": "",
          "type": "uint256"
        }
      ],
      "payable": false,
      "stateMutability": "view",
      "type": "function"
    },
    {
      "constant": true,
      "inputs": [],
      "name": "getRewards",
      "outputs": [
        {
          "internalType": "uint256",
          "name": "",
          "type": "uint256"
        }
      ],
      "payable": false,
      "stateMutability": "view",
      "type": "function"
    },
    {
      "constant": true,
      "inputs": [],
      "name": "getTime",
      "outputs": [
        {
          "internalType": "uint256",
          "name": "",
          "type": "uint256"
        }
      ],
      "payable": false,
      "stateMutability": "view",
      "type": "function"
    },
    {
      "constant": true,
      "inputs": [
        {
          "internalType": "address",
          "name": "_owner",
          "type": "address"
        }
      ],
      "name": "getWithdrawalBalance",
      "outputs": [
        {
          "internalType": "uint256",
          "name": "",
          "type": "uint256"
        }
      ],
      "payable": false,
      "stateMutability": "view",
      "type": "function"
    },
    {
      "constant": true,
      "inputs": [],
      "name": "isOwner",
      "outputs": [
        {
          "internalType": "bool",
          "name": "",
          "type": "bool"
        }
      ],
      "payable": false,
      "stateMutability": "view",
      "type": "function"
    },
    {
      "constant": false,
      "inputs": [
        {
          "internalType": "uint256",
          "name": "_chickenId",
          "type": "uint256"
        }
      ],
      "name": "levelUp",
      "outputs": [],
      "payable": true,
      "stateMutability": "payable",
      "type": "function"
    },
    {
      "constant": true,
      "inputs": [],
      "name": "owner",
      "outputs": [
        {
          "internalType": "address payable",
          "name": "",
          "type": "address"
        }
      ],
      "payable": false,
      "stateMutability": "view",
      "type": "function"
    },
    {
      "constant": false,
      "inputs": [],
      "name": "renounceOwnership",
      "outputs": [],
      "payable": false,
      "stateMutability": "nonpayable",
      "type": "function"
    },
    {
      "constant": false,
      "inputs": [
        {
          "internalType": "uint256",
          "name": "_fee",
          "type": "uint256"
        }
      ],
      "name": "setCreateChickenFee",
      "outputs": [],
      "payable": false,
      "stateMutability": "nonpayable",
      "type": "function"
    },
    {
      "constant": false,
      "inputs": [
        {
          "internalType": "uint256",
          "name": "_fee",
          "type": "uint256"
        }
      ],
      "name": "setLevelUpFee",
      "outputs": [],
      "payable": false,
      "stateMutability": "nonpayable",
      "type": "function"
    },
    {
      "constant": false,
      "inputs": [
        {
          "internalType": "uint256",
          "name": "_rewards",
          "type": "uint256"
        }
      ],
      "name": "setRewards",
      "outputs": [],
      "payable": false,
      "stateMutability": "nonpayable",
      "type": "function"
    },
    {
      "constant": false,
      "inputs": [
        {
          "internalType": "address payable",
          "name": "newOwner",
          "type": "address"
        }
      ],
      "name": "transferOwnership",
      "outputs": [],
      "payable": false,
      "stateMutability": "nonpayable",
      "type": "function"
    },
    {
      "constant": false,
      "inputs": [],
      "name": "withdraw",
      "outputs": [],
      "payable": false,
      "stateMutability": "nonpayable",
      "type": "function"
    },
    {
      "constant": false,
      "inputs": [
        {
          "internalType": "address",
          "name": "user",
          "type": "address"
        }
      ],
      "name": "withdrawUser",
      "outputs": [],
      "payable": false,
      "stateMutability": "nonpayable",
      "type": "function"
    },
    {
      "constant": false,
      "inputs": [
        {
          "internalType": "uint256",
          "name": "_chickenId",
          "type": "uint256"
        },
        {
          "internalType": "uint256",
          "name": "_difficulty",
          "type": "uint256"
        }
      ],
      "name": "attack",
      "outputs": [],
      "payable": true,
      "stateMutability": "payable",
      "type": "function"
    },
    {
      "constant": false,
      "inputs": [
        {
          "internalType": "uint256",
          "name": "_easy",
          "type": "uint256"
        },
        {
          "internalType": "uint256",
          "name": "_normal",
          "type": "uint256"
        },
        {
          "internalType": "uint256",
          "name": "_difficult",
          "type": "uint256"
        }
      ],
      "name": "setWinningProbabilities",
      "outputs": [],
      "payable": false,
      "stateMutability": "nonpayable",
      "type": "function"
    },
    {
      "constant": true,
      "inputs": [],
      "name": "getWinningProbabilities",
      "outputs": [
        {
          "internalType": "uint256",
          "name": "",
          "type": "uint256"
        },
        {
          "internalType": "uint256",
          "name": "",
          "type": "uint256"
        },
        {
          "internalType": "uint256",
          "name": "",
          "type": "uint256"
        }
      ],
      "payable": false,
      "stateMutability": "view",
      "type": "function"
    }
  ],
  "bytecode": "0x60806040526010600155600154600a0a600255620151806003556203f4806004556202a30060055566038d7ea4c68000600655662386f26fc1000060075566038d7ea4c68000600c556000600d556050600e55603c600f556028601055336000806101000a81548173ffffffffffffffffffffffffffffffffffffffff021916908373ffffffffffffffffffffffffffffffffffffffff1602179055506000809054906101000a900473ffffffffffffffffffffffffffffffffffffffff1673ffffffffffffffffffffffffffffffffffffffff16600073ffffffffffffffffffffffffffffffffffffffff167f8be0079c531659141344cd1fd0a4f28419497f9722a3daafe3b4186f6b6457e060405160405180910390a36128d5806101276000396000f3fe60806040526004361061019c5760003560e01c8063bb2f642d116100ec578063e1fa76381161008a578063f2fde38b11610064578063f2fde38b14610948578063f497193c14610999578063f7b168ec146109d2578063fbbe20a914610a8d5761019c565b8063e1fa76381461086a578063e33d878d146108a2578063e8c07ad0146108cd5761019c565b8063c7a29c6f116100c6578063c7a29c6f146106be578063ccf670f8146106f9578063d02db05214610734578063d8f7d334146107855761019c565b8063bb2f642d1461058e578063c39cbef1146105c9578063c598b563146106595761019c565b80635faf2880116101595780638da5cb5b116101335780638da5cb5b1461033d5780638f32d59b146103945780638fa07c48146103c3578063aa723c82146104e85761019c565b80635faf288014610292578063715018a6146102d757806386ebede9146102ee5761019c565b80630572b0cc146101a15780630ce90ec2146101cc5780633bc18e68146101fa5780633ccfd60b146102255780634827fa801461023c578063557ed1ba14610267575b600080fd5b3480156101ad57600080fd5b506101b6610ad2565b6040518082815260200191505060405180910390f35b6101f8600480360360208110156101e257600080fd5b8101908080359060200190929190505050610adc565b005b34801561020657600080fd5b5061020f610c8b565b6040518082815260200191505060405180910390f35b34801561023157600080fd5b5061023a610c98565b005b34801561024857600080fd5b50610251610cff565b6040518082815260200191505060405180910390f35b34801561027357600080fd5b5061027c610d09565b6040518082815260200191505060405180910390f35b34801561029e57600080fd5b506102d5600480360360408110156102b557600080fd5b810190808035906020019092919080359060200190929190505050610d11565b005b3480156102e357600080fd5b506102ec610deb565b005b3480156102fa57600080fd5b5061033b6004803603606081101561031157600080fd5b81019080803590602001909291908035906020019092919080359060200190929190505050610ebb565b005b34801561034957600080fd5b50610352610ee6565b604051808273ffffffffffffffffffffffffffffffffffffffff1673ffffffffffffffffffffffffffffffffffffffff16815260200191505060405180910390f35b3480156103a057600080fd5b506103a9610f0f565b604051808215151515815260200191505060405180910390f35b3480156103cf57600080fd5b506103fc600480360360208110156103e657600080fd5b8101908080359060200190929190505050610f66565b60405180806020018981526020018863ffffffff1663ffffffff1681526020018763ffffffff1663ffffffff1681526020018663ffffffff1663ffffffff1681526020018563ffffffff1663ffffffff1681526020018461ffff1661ffff1681526020018361ffff1661ffff16815260200182810382528a818151815260200191508051906020019080838360005b838110156104a657808201518184015260208101905061048b565b50505050905090810190601f1680156104d35780820380516001836020036101000a031916815260200191505b50995050505050505050505060405180910390f35b3480156104f457600080fd5b506105376004803603602081101561050b57600080fd5b81019080803573ffffffffffffffffffffffffffffffffffffffff1690602001909291905050506110af565b6040518080602001828103825283818151815260200191508051906020019060200280838360005b8381101561057a57808201518184015260208101905061055f565b505050509050019250505060405180910390f35b34801561059a57600080fd5b506105c7600480360360208110156105b157600080fd5b81019080803590602001909291905050506111dc565b005b3480156105d557600080fd5b50610657600480360360408110156105ec57600080fd5b81019080803590602001909291908035906020019064010000000081111561061357600080fd5b82018360208201111561062557600080fd5b8035906020019184600183028401116401000000008311171561064757600080fd5b90919293919293905050506111f7565b005b34801561066557600080fd5b506106a86004803603602081101561067c57600080fd5b81019080803573ffffffffffffffffffffffffffffffffffffffff1690602001909291905050506112dd565b6040518082815260200191505060405180910390f35b3480156106ca57600080fd5b506106f7600480360360208110156106e157600080fd5b8101908080359060200190929190505050611326565b005b34801561070557600080fd5b506107326004803603602081101561071c57600080fd5b8101908080359060200190929190505050611341565b005b34801561074057600080fd5b506107836004803603602081101561075757600080fd5b81019080803573ffffffffffffffffffffffffffffffffffffffff16906020019092919050505061135c565b005b34801561079157600080fd5b506107be600480360360208110156107a857600080fd5b81019080803590602001909291905050506114a6565b604051808060200189815260200188815260200187815260200186815260200185815260200184815260200183815260200182810382528a818151815260200191508051906020019080838360005b8381101561082857808201518184015260208101905061080d565b50505050905090810190601f1680156108555780820380516001836020036101000a031916815260200191505b50995050505050505050505060405180910390f35b6108a06004803603604081101561088057600080fd5b8101908080359060200190929190803590602001909291905050506116f2565b005b3480156108ae57600080fd5b506108b7611a38565b6040518082815260200191505060405180910390f35b3480156108d957600080fd5b50610906600480360360208110156108f057600080fd5b8101908080359060200190929190505050611a42565b604051808273ffffffffffffffffffffffffffffffffffffffff1673ffffffffffffffffffffffffffffffffffffffff16815260200191505060405180910390f35b34801561095457600080fd5b506109976004803603602081101561096b57600080fd5b81019080803573ffffffffffffffffffffffffffffffffffffffff169060200190929190505050611a75565b005b3480156109a557600080fd5b506109ae611a92565b60405180848152602001838152602001828152602001935050505060405180910390f35b610a8b600480360360208110156109e857600080fd5b8101908080359060200190640100000000811115610a0557600080fd5b820183602082011115610a1757600080fd5b80359060200191846001830284011164010000000083111715610a3957600080fd5b91908080601f016020809104026020016040519081016040528093929190818152602001838380828437600081840152601f19601f820116905080830192505050505050509192919290505050611aab565b005b348015610a9957600080fd5b50610ad060048036036040811015610ab057600080fd5b810190808035906020019092919080359060200190929190505050611b30565b005b6000600654905090565b600060088281548110610aeb57fe5b906000526020600020906003020190504281600201600c9054906101000a900463ffffffff1663ffffffff161115610b2257600080fd5b600c54341015610b3157600080fd5b6000610b496003600c54611cf290919063ffffffff16565b90506000610b636005600c54611cf290919063ffffffff16565b905081341015610bc257610b9b60018460020160009054906101000a900463ffffffff1663ffffffff16611d2990919063ffffffff16565b8360020160006101000a81548163ffffffff021916908363ffffffff160217905550610c85565b813410158015610bd157508034105b15610c2b57610c0460038460020160009054906101000a900463ffffffff1663ffffffff16611d2990919063ffffffff16565b8360020160006101000a81548163ffffffff021916908363ffffffff160217905550610c84565b803410610c8357610c6060058460020160009054906101000a900463ffffffff1663ffffffff16611d2990919063ffffffff16565b8360020160006101000a81548163ffffffff021916908363ffffffff1602179055505b5b5b50505050565b6000600880549050905090565b610ca0610f0f565b610ca957600080fd5b6000610cb3610ee6565b90508073ffffffffffffffffffffffffffffffffffffffff166108fc479081150290604051600060405180830381858888f19350505050158015610cfb573d6000803e3d6000fd5b5050565b6000600c54905090565b600042905090565b6014828160088281548110610d2257fe5b906000526020600020906003020160020160009054906101000a900463ffffffff1663ffffffff161015610d5557600080fd5b836009600082815260200190815260200160002060009054906101000a900473ffffffffffffffffffffffffffffffffffffffff1673ffffffffffffffffffffffffffffffffffffffff163373ffffffffffffffffffffffffffffffffffffffff1614610dc157600080fd5b8360088681548110610dcf57fe5b9060005260206000209060030201600101819055505050505050565b610df3610f0f565b610dfc57600080fd5b600073ffffffffffffffffffffffffffffffffffffffff166000809054906101000a900473ffffffffffffffffffffffffffffffffffffffff1673ffffffffffffffffffffffffffffffffffffffff167f8be0079c531659141344cd1fd0a4f28419497f9722a3daafe3b4186f6b6457e060405160405180910390a360008060006101000a81548173ffffffffffffffffffffffffffffffffffffffff021916908373ffffffffffffffffffffffffffffffffffffffff160217905550565b610ec3610f0f565b610ecc57600080fd5b82600e8190555081600f8190555080601081905550505050565b60008060009054906101000a900473ffffffffffffffffffffffffffffffffffffffff16905090565b60008060009054906101000a900473ffffffffffffffffffffffffffffffffffffffff1673ffffffffffffffffffffffffffffffffffffffff163373ffffffffffffffffffffffffffffffffffffffff1614905090565b60088181548110610f7357fe5b9060005260206000209060030201600091509050806000018054600181600116156101000203166002900480601f01602080910402602001604051908101604052809291908181526020018280546001816001161561010002031660029004801561101f5780601f10610ff45761010080835404028352916020019161101f565b820191906000526020600020905b81548152906001019060200180831161100257829003601f168201915b5050505050908060010154908060020160009054906101000a900463ffffffff16908060020160049054906101000a900463ffffffff16908060020160089054906101000a900463ffffffff169080600201600c9054906101000a900463ffffffff16908060020160109054906101000a900461ffff16908060020160129054906101000a900461ffff16905088565b606080600a60008473ffffffffffffffffffffffffffffffffffffffff1673ffffffffffffffffffffffffffffffffffffffff168152602001908152602001600020546040519080825280602002602001820160405280156111205781602001602082028038833980820191505090505b509050600080905060008090505b6008805490508110156111d1578473ffffffffffffffffffffffffffffffffffffffff166009600083815260200190815260200160002060009054906101000a900473ffffffffffffffffffffffffffffffffffffffff1673ffffffffffffffffffffffffffffffffffffffff1614156111c457808383815181106111af57fe5b60200260200101818152505081806001019250505b808060010191505061112e565b508192505050919050565b6111e4610f0f565b6111ed57600080fd5b8060078190555050565b600283816008828154811061120857fe5b906000526020600020906003020160020160009054906101000a900463ffffffff1663ffffffff16101561123b57600080fd5b846009600082815260200190815260200160002060009054906101000a900473ffffffffffffffffffffffffffffffffffffffff1673ffffffffffffffffffffffffffffffffffffffff163373ffffffffffffffffffffffffffffffffffffffff16146112a757600080fd5b8484600888815481106112b657fe5b906000526020600020906003020160000191906112d4929190612716565b50505050505050565b6000600b60008373ffffffffffffffffffffffffffffffffffffffff1673ffffffffffffffffffffffffffffffffffffffff168152602001908152602001600020549050919050565b61132e610f0f565b61133757600080fd5b8060068190555050565b611349610f0f565b61135257600080fd5b80600c8190555050565b8073ffffffffffffffffffffffffffffffffffffffff163373ffffffffffffffffffffffffffffffffffffffff161461139457600080fd5b60003390506000600b60003373ffffffffffffffffffffffffffffffffffffffff1673ffffffffffffffffffffffffffffffffffffffff1681526020019081526020016000205490506000600b60003373ffffffffffffffffffffffffffffffffffffffff1673ffffffffffffffffffffffffffffffffffffffff168152602001908152602001600020819055508173ffffffffffffffffffffffffffffffffffffffff166108fc829081150290604051600060405180830381858888f193505050506114a1576000600b60003373ffffffffffffffffffffffffffffffffffffffff1673ffffffffffffffffffffffffffffffffffffffff168152602001908152602001600020819055505b505050565b6060600080600080600080600060088054905089106114c457600080fd5b6114cc612796565b60088a815481106114d957fe5b906000526020600020906003020160405180610100016040529081600082018054600181600116156101000203166002900480601f01602080910402602001604051908101604052809291908181526020018280546001816001161561010002031660029004801561158c5780601f106115615761010080835404028352916020019161158c565b820191906000526020600020905b81548152906001019060200180831161156f57829003601f168201915b50505050508152602001600182015481526020016002820160009054906101000a900463ffffffff1663ffffffff1663ffffffff1681526020016002820160049054906101000a900463ffffffff1663ffffffff1663ffffffff1681526020016002820160089054906101000a900463ffffffff1663ffffffff1663ffffffff16815260200160028201600c9054906101000a900463ffffffff1663ffffffff1663ffffffff1681526020016002820160109054906101000a900461ffff1661ffff1661ffff1681526020016002820160129054906101000a900461ffff1661ffff1661ffff1681525050905080600001518160200151826040015183606001518460c001518560e0015186608001518760a001518797508563ffffffff1695508463ffffffff1694508361ffff1693508261ffff1692508163ffffffff1691508063ffffffff1690509850985098509850985098509850985050919395975091939597565b816009600082815260200190815260200160002060009054906101000a900473ffffffffffffffffffffffffffffffffffffffff1673ffffffffffffffffffffffffffffffffffffffff163373ffffffffffffffffffffffffffffffffffffffff161461175e57600080fd5b60006008848154811061176d57fe5b9060005260206000209060030201905061178681611d51565b61178f57600080fd5b600383111580156117a05750600083115b6117a957600080fd5b600060018414156117be57600e5490506117d8565b60028414156117d157600f5490506117d7565b60105490505b5b60006117e46064611d78565b90508181116119695761181760018460020160109054906101000a900461ffff1661ffff16611e1190919063ffffffff16565b8360020160106101000a81548161ffff021916908361ffff16021790555061186360018460020160009054906101000a900463ffffffff1663ffffffff16611d2990919063ffffffff16565b8360020160006101000a81548163ffffffff021916908363ffffffff16021790555061189a85600654611cf290919063ffffffff16565b600b60003373ffffffffffffffffffffffffffffffffffffffff1673ffffffffffffffffffffffffffffffffffffffff168152602001908152602001600020600082825401925050819055506118ef83611e35565b7f3849d67afa411de0fd25744c856a6072622af5d454f7a256fa38859bcbd047af6001604051808215151515815260200180602001828103825260158152602001807f596f757220636869636b656e2068617320776f6e2100000000000000000000008152506020019250505060405180910390a1611a30565b61199360018460020160129054906101000a900461ffff1661ffff16611e1190919063ffffffff16565b8360020160126101000a81548161ffff021916908361ffff1602179055506119ba83611e35565b7f3849d67afa411de0fd25744c856a6072622af5d454f7a256fa38859bcbd047af6000604051808215151515815260200180602001828103825260168152602001807f596f757220636869636b656e20686173206c6f737421000000000000000000008152506020019250505060405180910390a15b505050505050565b6000600754905090565b60096020528060005260406000206000915054906101000a900473ffffffffffffffffffffffffffffffffffffffff1681565b611a7d610f0f565b611a8657600080fd5b611a8f81611e5f565b50565b6000806000600e54600f54601054925092509250909192565b6007543414611ab957600080fd5b6002600a60003373ffffffffffffffffffffffffffffffffffffffff1673ffffffffffffffffffffffffffffffffffffffff168152602001908152602001600020541115611b0657600080fd5b6000611b1182611f57565b905060648181611b1d57fe5b0681039050611b2c8282611fe5565b5050565b816009600082815260200190815260200160002060009054906101000a900473ffffffffffffffffffffffffffffffffffffffff1673ffffffffffffffffffffffffffffffffffffffff163373ffffffffffffffffffffffffffffffffffffffff1614611b9c57600080fd5b816009600082815260200190815260200160002060009054906101000a900473ffffffffffffffffffffffffffffffffffffffff1673ffffffffffffffffffffffffffffffffffffffff163373ffffffffffffffffffffffffffffffffffffffff1614611c0857600080fd5b82841415611c1557600080fd5b600060088581548110611c2457fe5b90600052602060002090600302019050600060088581548110611c4357fe5b90600052602060002090600302019050611c5c8261231a565b8015611c6d5750611c6c8161231a565b5b611c7657600080fd5b6000600254826001015481611c8757fe5b069050600060028285600101540181611c9c57fe5b049050611cde6040518060400160405280600a81526020017f4e6577436869636b656e0000000000000000000000000000000000000000000081525082612367565b611ce884846126a8565b5050505050505050565b600080831415611d055760009050611d23565b6000828402905082848281611d1657fe5b0414611d1e57fe5b809150505b92915050565b60008082840190508363ffffffff168163ffffffff161015611d4757fe5b8091505092915050565b6000428260020160049054906101000a900463ffffffff1663ffffffff1611159050919050565b6000611d906001600d546126fa90919063ffffffff16565b600d81905550814233600d54604051602001808481526020018373ffffffffffffffffffffffffffffffffffffffff1673ffffffffffffffffffffffffffffffffffffffff1660601b815260140182815260200193505050506040516020818303038152906040528051906020012060001c81611e0957fe5b069050919050565b60008082840190508361ffff168161ffff161015611e2b57fe5b8091505092915050565b60035442018160020160046101000a81548163ffffffff021916908363ffffffff16021790555050565b600073ffffffffffffffffffffffffffffffffffffffff168173ffffffffffffffffffffffffffffffffffffffff161415611e9957600080fd5b8073ffffffffffffffffffffffffffffffffffffffff166000809054906101000a900473ffffffffffffffffffffffffffffffffffffffff1673ffffffffffffffffffffffffffffffffffffffff167f8be0079c531659141344cd1fd0a4f28419497f9722a3daafe3b4186f6b6457e060405160405180910390a3806000806101000a81548173ffffffffffffffffffffffffffffffffffffffff021916908373ffffffffffffffffffffffffffffffffffffffff16021790555050565b600080826040516020018082805190602001908083835b60208310611f915780518252602082019150602081019050602083039250611f6e565b6001836020036101000a0380198251168184511680821785525050505050509050019150506040516020818303038152906040528051906020012060001c90506002548181611fdc57fe5b06915050919050565b600060016008604051806101000160405280868152602001858152602001600163ffffffff1681526020014263ffffffff1681526020014263ffffffff1681526020014263ffffffff168152602001600061ffff168152602001600061ffff1681525090806001815401808255809150509060018203906000526020600020906003020160009091929091909150600082015181600001908051906020019061208f9291906127fb565b506020820151816001015560408201518160020160006101000a81548163ffffffff021916908363ffffffff16021790555060608201518160020160046101000a81548163ffffffff021916908363ffffffff16021790555060808201518160020160086101000a81548163ffffffff021916908363ffffffff16021790555060a082015181600201600c6101000a81548163ffffffff021916908363ffffffff16021790555060c08201518160020160106101000a81548161ffff021916908361ffff16021790555060e08201518160020160126101000a81548161ffff021916908361ffff1602179055505050039050336009600083815260200190815260200160002060006101000a81548173ffffffffffffffffffffffffffffffffffffffff021916908373ffffffffffffffffffffffffffffffffffffffff1602179055506122266001600a60003373ffffffffffffffffffffffffffffffffffffffff1673ffffffffffffffffffffffffffffffffffffffff168152602001908152602001600020546126fa90919063ffffffff16565b600a60003373ffffffffffffffffffffffffffffffffffffffff1673ffffffffffffffffffffffffffffffffffffffff168152602001908152602001600020819055507f1f0245df64b6ba504325be583e0ea6746dcc8043b3cd2e50f4a45558d0f47af38184846040518084815260200180602001838152602001828103825284818151815260200191508051906020019080838360005b838110156122d95780820151818401526020810190506122be565b50505050905090810190601f1680156123065780820380516001836020036101000a031916815260200191505b5094505050505060405180910390a1505050565b6000428260020160089054906101000a900463ffffffff1663ffffffff161115801561236057504282600201600c9054906101000a900463ffffffff1663ffffffff1611155b9050919050565b600060016008604051806101000160405280868152602001858152602001600163ffffffff168152602001600554420163ffffffff168152602001600554420163ffffffff168152602001600554420163ffffffff168152602001600061ffff168152602001600061ffff1681525090806001815401808255809150509060018203906000526020600020906003020160009091929091909150600082015181600001908051906020019061241d9291906127fb565b506020820151816001015560408201518160020160006101000a81548163ffffffff021916908363ffffffff16021790555060608201518160020160046101000a81548163ffffffff021916908363ffffffff16021790555060808201518160020160086101000a81548163ffffffff021916908363ffffffff16021790555060a082015181600201600c6101000a81548163ffffffff021916908363ffffffff16021790555060c08201518160020160106101000a81548161ffff021916908361ffff16021790555060e08201518160020160126101000a81548161ffff021916908361ffff1602179055505050039050336009600083815260200190815260200160002060006101000a81548173ffffffffffffffffffffffffffffffffffffffff021916908373ffffffffffffffffffffffffffffffffffffffff1602179055506125b46001600a60003373ffffffffffffffffffffffffffffffffffffffff1673ffffffffffffffffffffffffffffffffffffffff168152602001908152602001600020546126fa90919063ffffffff16565b600a60003373ffffffffffffffffffffffffffffffffffffffff1673ffffffffffffffffffffffffffffffffffffffff168152602001908152602001600020819055507f1f0245df64b6ba504325be583e0ea6746dcc8043b3cd2e50f4a45558d0f47af38184846040518084815260200180602001838152602001828103825284818151815260200191508051906020019080838360005b8381101561266757808201518184015260208101905061264c565b50505050905090810190601f1680156126945780820380516001836020036101000a031916815260200191505b5094505050505060405180910390a1505050565b60045442018260020160086101000a81548163ffffffff021916908363ffffffff16021790555060045442018160020160086101000a81548163ffffffff021916908363ffffffff1602179055505050565b60008082840190508381101561270c57fe5b8091505092915050565b828054600181600116156101000203166002900490600052602060002090601f016020900481019282601f1061275757803560ff1916838001178555612785565b82800160010185558215612785579182015b82811115612784578235825591602001919060010190612769565b5b509050612792919061287b565b5090565b6040518061010001604052806060815260200160008152602001600063ffffffff168152602001600063ffffffff168152602001600063ffffffff168152602001600063ffffffff168152602001600061ffff168152602001600061ffff1681525090565b828054600181600116156101000203166002900490600052602060002090601f016020900481019282601f1061283c57805160ff191683800117855561286a565b8280016001018555821561286a579182015b8281111561286957825182559160200191906001019061284e565b5b509050612877919061287b565b5090565b61289d91905b80821115612899576000816000905550600101612881565b5090565b9056fea265627a7a7231582097f9c456ed2b5b15e7af311a455d0fc0ffd4bcf221a4f943de12e02f4c2e232b64736f6c63430005100032",
  "source": "//SPDX-License-Identifier: MIT\r\npragma solidity >=0.5.0 <0.6.0;\r\n\r\nimport \"./chickenhelper.sol\";\r\n\r\ncontract ChickenAttack is ChickenHelper {\r\n    uint randNonce = 0;\r\n    uint attackVictoryProbabilityEasy = 80;\r\n    uint attackVictoryProbabilityNormal = 60;\r\n    uint attackVictoryProbabilityDifficult = 40;\r\n\r\n    function randMod(uint _modulus) internal returns (uint) {\r\n        randNonce = randNonce.add(1);\r\n        return\r\n            uint(keccak256(abi.encodePacked(now, msg.sender, randNonce))) %\r\n            _modulus;\r\n    }\r\n\r\n    // function attack(uint _chickenId, uint _targetId)\r\n    //     external\r\n    //     payable\r\n    //     onlyOwnerOf(_chickenId)\r\n    // {\r\n    //     require(_chickenId != _targetId);\r\n    //     Chicken storage myChicken = chickens[_chickenId];\r\n    //     Chicken storage enemyChicken = chickens[_targetId];\r\n    //     require(_isReady(myChicken));\r\n    //     uint rand = randMod(100);\r\n    //     if (rand <= attackVictoryProbability) {\r\n    //         myChicken.winCount = myChicken.winCount.add(1);\r\n    //         myChicken.level = myChicken.level.add(1);\r\n    //         enemyChicken.lossCount = enemyChicken.lossCount.add(1);\r\n    //         pendingWithdraws[msg.sender] += rewards;\r\n    //         _triggerCooldown(myChicken);\r\n    //         emit BattleResolve(true, (\"Your chicken has won!\"));\r\n    //     } else {\r\n    //         myChicken.lossCount = myChicken.lossCount.add(1);\r\n    //         enemyChicken.winCount = enemyChicken.winCount.add(1);\r\n    //         _triggerCooldown(myChicken);\r\n    //         emit BattleResolve(false, \"Your chicken has lost!\");\r\n    //     }\r\n    // }\r\n\r\n    function attack(uint _chickenId, uint _difficulty)\r\n        external\r\n        payable\r\n        onlyOwnerOf(_chickenId)\r\n    {\r\n        Chicken storage myChicken = chickens[_chickenId];\r\n        require(_isReady(myChicken));\r\n        require(_difficulty <= 3 && _difficulty > 0);\r\n        uint attackVictoryProbability;\r\n        if (_difficulty == 1)\r\n            attackVictoryProbability = attackVictoryProbabilityEasy;\r\n        else if (_difficulty == 2)\r\n            attackVictoryProbability = attackVictoryProbabilityNormal;\r\n        else attackVictoryProbability = attackVictoryProbabilityDifficult;\r\n        uint rand = randMod(100);\r\n        if (rand <= attackVictoryProbability) {\r\n            myChicken.winCount = myChicken.winCount.add(1);\r\n            myChicken.level = myChicken.level.add(1);\r\n            pendingWithdraws[msg.sender] += rewards.mul(_difficulty);\r\n            _triggerCooldown(myChicken);\r\n            emit BattleResolve(true, (\"Your chicken has won!\"));\r\n        } else {\r\n            myChicken.lossCount = myChicken.lossCount.add(1);\r\n            _triggerCooldown(myChicken);\r\n            emit BattleResolve(false, \"Your chicken has lost!\");\r\n        }\r\n    }\r\n\r\n    function setWinningProbabilities(\r\n        uint _easy,\r\n        uint _normal,\r\n        uint _difficult\r\n    ) external onlyOwner {\r\n        attackVictoryProbabilityEasy = _easy;\r\n        attackVictoryProbabilityNormal = _normal;\r\n        attackVictoryProbabilityDifficult = _difficult;\r\n    }\r\n\r\n    function getWinningProbabilities()\r\n        external\r\n        view\r\n        returns (\r\n            uint,\r\n            uint,\r\n            uint\r\n        )\r\n    {\r\n        return (\r\n            attackVictoryProbabilityEasy,\r\n            attackVictoryProbabilityNormal,\r\n            attackVictoryProbabilityDifficult\r\n        );\r\n    }\r\n}\r\n",
  "sourcePath": "C:\\Users\\sgs98\\Desktop\\ei\\CryptoChickens\\contracts\\chickenattack.sol",
  "compiler": {
    "name": "solc",
    "version": "0.5.16+commit.9c3226ce.Emscripten.clang"
  },
  "schemaVersion": "3.4.9",
  "updatedAt": "2022-08-31T22:29:16.823Z",
  "devdoc": {
    "methods": {
      "isOwner()": {
        "return": "true if `msg.sender` is the owner of the contract."
      },
      "owner()": {
        "return": "the address of the owner."
      },
      "renounceOwnership()": {
        "details": "Allows the current owner to relinquish control of the contract."
      },
      "transferOwnership(address)": {
        "details": "Allows the current owner to transfer control of the contract to a newOwner.",
        "params": {
          "newOwner": "The address to transfer ownership to."
        }
      }
    }
  },
  "userdoc": {
    "methods": {
      "renounceOwnership()": {
        "notice": "Renouncing to ownership will leave the contract without an owner. It will not be possible to call the functions with the `onlyOwner` modifier anymore."
      }
    }
  }
}