{
  "contractName": "ChickenBreeding",
  "abi": [
    {
      "anonymous": false,
      "inputs": [
        {
          "indexed": false,
          "internalType": "bool",
          "name": "result",
          "type": "bool"
        },
        {
          "indexed": false,
          "internalType": "string",
          "name": "resultString",
          "type": "string"
        }
      ],
      "name": "BattleResolve",
      "type": "event"
    },
    {
      "anonymous": false,
      "inputs": [
        {
          "indexed": false,
          "internalType": "uint256",
          "name": "chickenId",
          "type": "uint256"
        },
        {
          "indexed": false,
          "internalType": "string",
          "name": "name",
          "type": "string"
        },
        {
          "indexed": false,
          "internalType": "uint256",
          "name": "dna",
          "type": "uint256"
        }
      ],
      "name": "NewChicken",
      "type": "event"
    },
    {
      "anonymous": false,
      "inputs": [
        {
          "indexed": true,
          "internalType": "address",
          "name": "previousOwner",
          "type": "address"
        },
        {
          "indexed": true,
          "internalType": "address",
          "name": "newOwner",
          "type": "address"
        }
      ],
      "name": "OwnershipTransferred",
      "type": "event"
    },
    {
      "constant": true,
      "inputs": [
        {
          "internalType": "uint256",
          "name": "",
          "type": "uint256"
        }
      ],
      "name": "chickenToOwner",
      "outputs": [
        {
          "internalType": "address",
          "name": "",
          "type": "address"
        }
      ],
      "payable": false,
      "stateMutability": "view",
      "type": "function"
    },
    {
      "constant": true,
      "inputs": [
        {
          "internalType": "uint256",
          "name": "",
          "type": "uint256"
        }
      ],
      "name": "chickens",
      "outputs": [
        {
          "internalType": "string",
          "name": "name",
          "type": "string"
        },
        {
          "internalType": "uint256",
          "name": "dna",
          "type": "uint256"
        },
        {
          "internalType": "uint32",
          "name": "level",
          "type": "uint32"
        },
        {
          "internalType": "uint32",
          "name": "readyTime",
          "type": "uint32"
        },
        {
          "internalType": "uint32",
          "name": "breedingTime",
          "type": "uint32"
        },
        {
          "internalType": "uint32",
          "name": "gestationTime",
          "type": "uint32"
        },
        {
          "internalType": "uint16",
          "name": "winCount",
          "type": "uint16"
        },
        {
          "internalType": "uint16",
          "name": "lossCount",
          "type": "uint16"
        }
      ],
      "payable": false,
      "stateMutability": "view",
      "type": "function"
    },
    {
      "constant": false,
      "inputs": [
        {
          "internalType": "string",
          "name": "_name",
          "type": "string"
        }
      ],
      "name": "createRandomChicken",
      "outputs": [],
      "payable": true,
      "stateMutability": "payable",
      "type": "function"
    },
    {
      "constant": true,
      "inputs": [
        {
          "internalType": "uint256",
          "name": "_id",
          "type": "uint256"
        }
      ],
      "name": "getChickenFromId",
      "outputs": [
        {
          "internalType": "string",
          "name": "name",
          "type": "string"
        },
        {
          "internalType": "uint256",
          "name": "dna",
          "type": "uint256"
        },
        {
          "internalType": "uint256",
          "name": "level",
          "type": "uint256"
        },
        {
          "internalType": "uint256",
          "name": "readyTime",
          "type": "uint256"
        },
        {
          "internalType": "uint256",
          "name": "winCount",
          "type": "uint256"
        },
        {
          "internalType": "uint256",
          "name": "lossCount",
          "type": "uint256"
        },
        {
          "internalType": "uint256",
          "name": "breedingTime",
          "type": "uint256"
        },
        {
          "internalType": "uint256",
          "name": "gestationTime",
          "type": "uint256"
        }
      ],
      "payable": false,
      "stateMutability": "view",
      "type": "function"
    },
    {
      "constant": true,
      "inputs": [],
      "name": "getChickenLength",
      "outputs": [
        {
          "internalType": "uint256",
          "name": "",
          "type": "uint256"
        }
      ],
      "payable": false,
      "stateMutability": "view",
      "type": "function"
    },
    {
      "constant": true,
      "inputs": [],
      "name": "getCreateChickenFee",
      "outputs": [
        {
          "internalType": "uint256",
          "name": "",
          "type": "uint256"
        }
      ],
      "payable": false,
      "stateMutability": "view",
      "type": "function"
    },
    {
      "constant": true,
      "inputs": [],
      "name": "getRewards",
      "outputs": [
        {
          "internalType": "uint256",
          "name": "",
          "type": "uint256"
        }
      ],
      "payable": false,
      "stateMutability": "view",
      "type": "function"
    },
    {
      "constant": true,
      "inputs": [],
      "name": "getTime",
      "outputs": [
        {
          "internalType": "uint256",
          "name": "",
          "type": "uint256"
        }
      ],
      "payable": false,
      "stateMutability": "view",
      "type": "function"
    },
    {
      "constant": true,
      "inputs": [],
      "name": "isOwner",
      "outputs": [
        {
          "internalType": "bool",
          "name": "",
          "type": "bool"
        }
      ],
      "payable": false,
      "stateMutability": "view",
      "type": "function"
    },
    {
      "constant": true,
      "inputs": [],
      "name": "owner",
      "outputs": [
        {
          "internalType": "address payable",
          "name": "",
          "type": "address"
        }
      ],
      "payable": false,
      "stateMutability": "view",
      "type": "function"
    },
    {
      "constant": false,
      "inputs": [],
      "name": "renounceOwnership",
      "outputs": [],
      "payable": false,
      "stateMutability": "nonpayable",
      "type": "function"
    },
    {
      "constant": false,
      "inputs": [
        {
          "internalType": "uint256",
          "name": "_fee",
          "type": "uint256"
        }
      ],
      "name": "setCreateChickenFee",
      "outputs": [],
      "payable": false,
      "stateMutability": "nonpayable",
      "type": "function"
    },
    {
      "constant": false,
      "inputs": [
        {
          "internalType": "uint256",
          "name": "_rewards",
          "type": "uint256"
        }
      ],
      "name": "setRewards",
      "outputs": [],
      "payable": false,
      "stateMutability": "nonpayable",
      "type": "function"
    },
    {
      "constant": false,
      "inputs": [
        {
          "internalType": "address payable",
          "name": "newOwner",
          "type": "address"
        }
      ],
      "name": "transferOwnership",
      "outputs": [],
      "payable": false,
      "stateMutability": "nonpayable",
      "type": "function"
    },
    {
      "constant": false,
      "inputs": [
        {
          "internalType": "uint256",
          "name": "_firstChickenId",
          "type": "uint256"
        },
        {
          "internalType": "uint256",
          "name": "_secondChickenId",
          "type": "uint256"
        }
      ],
      "name": "breeding",
      "outputs": [],
      "payable": false,
      "stateMutability": "nonpayable",
      "type": "function"
    }
  ],
  "bytecode": "0x60806040526010600155600154600a0a600255620151806003556203f4806004556202a30060055566038d7ea4c68000600655662386f26fc10000600755336000806101000a81548173ffffffffffffffffffffffffffffffffffffffff021916908373ffffffffffffffffffffffffffffffffffffffff1602179055506000809054906101000a900473ffffffffffffffffffffffffffffffffffffffff1673ffffffffffffffffffffffffffffffffffffffff16600073ffffffffffffffffffffffffffffffffffffffff167f8be0079c531659141344cd1fd0a4f28419497f9722a3daafe3b4186f6b6457e060405160405180910390a3611853806101086000396000f3fe6080604052600436106100e85760003560e01c8063bb2f642d1161008a578063e8c07ad011610059578063e8c07ad0146104b6578063f2fde38b14610531578063f7b168ec14610582578063fbbe20a91461063d576100e8565b8063bb2f642d14610330578063c7a29c6f1461036b578063d8f7d334146103a6578063e33d878d1461048b576100e8565b8063715018a6116100c6578063715018a61461016e5780638da5cb5b146101855780638f32d59b146101dc5780638fa07c481461020b576100e8565b80630572b0cc146100ed5780633bc18e6814610118578063557ed1ba14610143575b600080fd5b3480156100f957600080fd5b50610102610682565b6040518082815260200191505060405180910390f35b34801561012457600080fd5b5061012d61068c565b6040518082815260200191505060405180910390f35b34801561014f57600080fd5b50610158610699565b6040518082815260200191505060405180910390f35b34801561017a57600080fd5b506101836106a1565b005b34801561019157600080fd5b5061019a610771565b604051808273ffffffffffffffffffffffffffffffffffffffff1673ffffffffffffffffffffffffffffffffffffffff16815260200191505060405180910390f35b3480156101e857600080fd5b506101f161079a565b604051808215151515815260200191505060405180910390f35b34801561021757600080fd5b506102446004803603602081101561022e57600080fd5b81019080803590602001909291905050506107f1565b60405180806020018981526020018863ffffffff1663ffffffff1681526020018763ffffffff1663ffffffff1681526020018663ffffffff1663ffffffff1681526020018563ffffffff1663ffffffff1681526020018461ffff1661ffff1681526020018361ffff1661ffff16815260200182810382528a818151815260200191508051906020019080838360005b838110156102ee5780820151818401526020810190506102d3565b50505050905090810190601f16801561031b5780820380516001836020036101000a031916815260200191505b50995050505050505050505060405180910390f35b34801561033c57600080fd5b506103696004803603602081101561035357600080fd5b810190808035906020019092919050505061093a565b005b34801561037757600080fd5b506103a46004803603602081101561038e57600080fd5b8101908080359060200190929190505050610955565b005b3480156103b257600080fd5b506103df600480360360208110156103c957600080fd5b8101908080359060200190929190505050610970565b604051808060200189815260200188815260200187815260200186815260200185815260200184815260200183815260200182810382528a818151815260200191508051906020019080838360005b8381101561044957808201518184015260208101905061042e565b50505050905090810190601f1680156104765780820380516001836020036101000a031916815260200191505b50995050505050505050505060405180910390f35b34801561049757600080fd5b506104a0610bbc565b6040518082815260200191505060405180910390f35b3480156104c257600080fd5b506104ef600480360360208110156104d957600080fd5b8101908080359060200190929190505050610bc6565b604051808273ffffffffffffffffffffffffffffffffffffffff1673ffffffffffffffffffffffffffffffffffffffff16815260200191505060405180910390f35b34801561053d57600080fd5b506105806004803603602081101561055457600080fd5b81019080803573ffffffffffffffffffffffffffffffffffffffff169060200190929190505050610bf9565b005b61063b6004803603602081101561059857600080fd5b81019080803590602001906401000000008111156105b557600080fd5b8201836020820111156105c757600080fd5b803590602001918460018302840111640100000000831117156105e957600080fd5b91908080601f016020809104026020016040519081016040528093929190818152602001838380828437600081840152601f19601f820116905080830192505050505050509192919290505050610c16565b005b34801561064957600080fd5b506106806004803603604081101561066057600080fd5b810190808035906020019092919080359060200190929190505050610c9b565b005b6000600654905090565b6000600880549050905090565b600042905090565b6106a961079a565b6106b257600080fd5b600073ffffffffffffffffffffffffffffffffffffffff166000809054906101000a900473ffffffffffffffffffffffffffffffffffffffff1673ffffffffffffffffffffffffffffffffffffffff167f8be0079c531659141344cd1fd0a4f28419497f9722a3daafe3b4186f6b6457e060405160405180910390a360008060006101000a81548173ffffffffffffffffffffffffffffffffffffffff021916908373ffffffffffffffffffffffffffffffffffffffff160217905550565b60008060009054906101000a900473ffffffffffffffffffffffffffffffffffffffff16905090565b60008060009054906101000a900473ffffffffffffffffffffffffffffffffffffffff1673ffffffffffffffffffffffffffffffffffffffff163373ffffffffffffffffffffffffffffffffffffffff1614905090565b600881815481106107fe57fe5b9060005260206000209060030201600091509050806000018054600181600116156101000203166002900480601f0160208091040260200160405190810160405280929190818152602001828054600181600116156101000203166002900480156108aa5780601f1061087f576101008083540402835291602001916108aa565b820191906000526020600020905b81548152906001019060200180831161088d57829003601f168201915b5050505050908060010154908060020160009054906101000a900463ffffffff16908060020160049054906101000a900463ffffffff16908060020160089054906101000a900463ffffffff169080600201600c9054906101000a900463ffffffff16908060020160109054906101000a900461ffff16908060020160129054906101000a900461ffff16905088565b61094261079a565b61094b57600080fd5b8060078190555050565b61095d61079a565b61096657600080fd5b8060068190555050565b60606000806000806000806000600880549050891061098e57600080fd5b610996611714565b60088a815481106109a357fe5b906000526020600020906003020160405180610100016040529081600082018054600181600116156101000203166002900480601f016020809104026020016040519081016040528092919081815260200182805460018160011615610100020316600290048015610a565780601f10610a2b57610100808354040283529160200191610a56565b820191906000526020600020905b815481529060010190602001808311610a3957829003601f168201915b50505050508152602001600182015481526020016002820160009054906101000a900463ffffffff1663ffffffff1663ffffffff1681526020016002820160049054906101000a900463ffffffff1663ffffffff1663ffffffff1681526020016002820160089054906101000a900463ffffffff1663ffffffff1663ffffffff16815260200160028201600c9054906101000a900463ffffffff1663ffffffff1663ffffffff1681526020016002820160109054906101000a900461ffff1661ffff1661ffff1681526020016002820160129054906101000a900461ffff1661ffff1661ffff1681525050905080600001518160200151826040015183606001518460c001518560e0015186608001518760a001518797508563ffffffff1695508463ffffffff1694508361ffff1693508261ffff1692508163ffffffff1691508063ffffffff1690509850985098509850985098509850985050919395975091939597565b6000600754905090565b60096020528060005260406000206000915054906101000a900473ffffffffffffffffffffffffffffffffffffffff1681565b610c0161079a565b610c0a57600080fd5b610c1381610e5d565b50565b6007543414610c2457600080fd5b6002600a60003373ffffffffffffffffffffffffffffffffffffffff1673ffffffffffffffffffffffffffffffffffffffff168152602001908152602001600020541115610c7157600080fd5b6000610c7c82610f55565b905060648181610c8857fe5b0681039050610c978282610fe3565b5050565b816009600082815260200190815260200160002060009054906101000a900473ffffffffffffffffffffffffffffffffffffffff1673ffffffffffffffffffffffffffffffffffffffff163373ffffffffffffffffffffffffffffffffffffffff1614610d0757600080fd5b816009600082815260200190815260200160002060009054906101000a900473ffffffffffffffffffffffffffffffffffffffff1673ffffffffffffffffffffffffffffffffffffffff163373ffffffffffffffffffffffffffffffffffffffff1614610d7357600080fd5b82841415610d8057600080fd5b600060088581548110610d8f57fe5b90600052602060002090600302019050600060088581548110610dae57fe5b90600052602060002090600302019050610dc782611318565b8015610dd85750610dd781611318565b5b610de157600080fd5b6000600254826001015481610df257fe5b069050600060028285600101540181610e0757fe5b049050610e496040518060400160405280600a81526020017f4e6577436869636b656e0000000000000000000000000000000000000000000081525082611365565b610e5384846116a6565b5050505050505050565b600073ffffffffffffffffffffffffffffffffffffffff168173ffffffffffffffffffffffffffffffffffffffff161415610e9757600080fd5b8073ffffffffffffffffffffffffffffffffffffffff166000809054906101000a900473ffffffffffffffffffffffffffffffffffffffff1673ffffffffffffffffffffffffffffffffffffffff167f8be0079c531659141344cd1fd0a4f28419497f9722a3daafe3b4186f6b6457e060405160405180910390a3806000806101000a81548173ffffffffffffffffffffffffffffffffffffffff021916908373ffffffffffffffffffffffffffffffffffffffff16021790555050565b600080826040516020018082805190602001908083835b60208310610f8f5780518252602082019150602081019050602083039250610f6c565b6001836020036101000a0380198251168184511680821785525050505050509050019150506040516020818303038152906040528051906020012060001c90506002548181610fda57fe5b06915050919050565b600060016008604051806101000160405280868152602001858152602001600163ffffffff1681526020014263ffffffff1681526020014263ffffffff1681526020014263ffffffff168152602001600061ffff168152602001600061ffff1681525090806001815401808255809150509060018203906000526020600020906003020160009091929091909150600082015181600001908051906020019061108d929190611779565b506020820151816001015560408201518160020160006101000a81548163ffffffff021916908363ffffffff16021790555060608201518160020160046101000a81548163ffffffff021916908363ffffffff16021790555060808201518160020160086101000a81548163ffffffff021916908363ffffffff16021790555060a082015181600201600c6101000a81548163ffffffff021916908363ffffffff16021790555060c08201518160020160106101000a81548161ffff021916908361ffff16021790555060e08201518160020160126101000a81548161ffff021916908361ffff1602179055505050039050336009600083815260200190815260200160002060006101000a81548173ffffffffffffffffffffffffffffffffffffffff021916908373ffffffffffffffffffffffffffffffffffffffff1602179055506112246001600a60003373ffffffffffffffffffffffffffffffffffffffff1673ffffffffffffffffffffffffffffffffffffffff168152602001908152602001600020546116f890919063ffffffff16565b600a60003373ffffffffffffffffffffffffffffffffffffffff1673ffffffffffffffffffffffffffffffffffffffff168152602001908152602001600020819055507f1f0245df64b6ba504325be583e0ea6746dcc8043b3cd2e50f4a45558d0f47af38184846040518084815260200180602001838152602001828103825284818151815260200191508051906020019080838360005b838110156112d75780820151818401526020810190506112bc565b50505050905090810190601f1680156113045780820380516001836020036101000a031916815260200191505b5094505050505060405180910390a1505050565b6000428260020160089054906101000a900463ffffffff1663ffffffff161115801561135e57504282600201600c9054906101000a900463ffffffff1663ffffffff1611155b9050919050565b600060016008604051806101000160405280868152602001858152602001600163ffffffff168152602001600554420163ffffffff168152602001600554420163ffffffff168152602001600554420163ffffffff168152602001600061ffff168152602001600061ffff1681525090806001815401808255809150509060018203906000526020600020906003020160009091929091909150600082015181600001908051906020019061141b929190611779565b506020820151816001015560408201518160020160006101000a81548163ffffffff021916908363ffffffff16021790555060608201518160020160046101000a81548163ffffffff021916908363ffffffff16021790555060808201518160020160086101000a81548163ffffffff021916908363ffffffff16021790555060a082015181600201600c6101000a81548163ffffffff021916908363ffffffff16021790555060c08201518160020160106101000a81548161ffff021916908361ffff16021790555060e08201518160020160126101000a81548161ffff021916908361ffff1602179055505050039050336009600083815260200190815260200160002060006101000a81548173ffffffffffffffffffffffffffffffffffffffff021916908373ffffffffffffffffffffffffffffffffffffffff1602179055506115b26001600a60003373ffffffffffffffffffffffffffffffffffffffff1673ffffffffffffffffffffffffffffffffffffffff168152602001908152602001600020546116f890919063ffffffff16565b600a60003373ffffffffffffffffffffffffffffffffffffffff1673ffffffffffffffffffffffffffffffffffffffff168152602001908152602001600020819055507f1f0245df64b6ba504325be583e0ea6746dcc8043b3cd2e50f4a45558d0f47af38184846040518084815260200180602001838152602001828103825284818151815260200191508051906020019080838360005b8381101561166557808201518184015260208101905061164a565b50505050905090810190601f1680156116925780820380516001836020036101000a031916815260200191505b5094505050505060405180910390a1505050565b60045442018260020160086101000a81548163ffffffff021916908363ffffffff16021790555060045442018160020160086101000a81548163ffffffff021916908363ffffffff1602179055505050565b60008082840190508381101561170a57fe5b8091505092915050565b6040518061010001604052806060815260200160008152602001600063ffffffff168152602001600063ffffffff168152602001600063ffffffff168152602001600063ffffffff168152602001600061ffff168152602001600061ffff1681525090565b828054600181600116156101000203166002900490600052602060002090601f016020900481019282601f106117ba57805160ff19168380011785556117e8565b828001600101855582156117e8579182015b828111156117e75782518255916020019190600101906117cc565b5b5090506117f591906117f9565b5090565b61181b91905b808211156118175760008160009055506001016117ff565b5090565b9056fea265627a7a72315820a2dcaa3ab53f8ca980bda96f66c6fa5d96ddbfad29edb9a627510e4c0ff5ee9664736f6c63430005100032",
  "source": "//SPDX-License-Identifier: MIT\r\npragma solidity >=0.5.0 <0.6.0;\r\n\r\nimport \"./chickenfactory.sol\";\r\n\r\ncontract ChickenBreeding is ChickenFactory {\r\n    modifier onlyOwnerOf(uint _chickenId) {\r\n        require(msg.sender == chickenToOwner[_chickenId]);\r\n        _;\r\n    }\r\n\r\n    function _triggerCooldown(Chicken storage _chicken) internal {\r\n        _chicken.readyTime = uint32(now + cooldownTime);\r\n    }\r\n\r\n    function _triggerCooldownBreeding(\r\n        Chicken storage _firstChicken,\r\n        Chicken storage _secondChicken\r\n    ) internal {\r\n        _firstChicken.breedingTime = uint32(now + breedingCooldownTime);\r\n        _secondChicken.breedingTime = uint32(now + breedingCooldownTime);\r\n    }\r\n\r\n    function _isReady(Chicken storage _chicken) internal view returns (bool) {\r\n        return (_chicken.readyTime <= now);\r\n    }\r\n\r\n    function _isGestating(Chicken storage _chicken)\r\n        internal\r\n        view\r\n        returns (bool)\r\n    {\r\n        return (_chicken.gestationTime <= now);\r\n    }\r\n\r\n    function _isBreedable(Chicken storage _chicken)\r\n        internal\r\n        view\r\n        returns (bool)\r\n    {\r\n        return ((_chicken.breedingTime <= now) &&\r\n            (_chicken.gestationTime <= now));\r\n    }\r\n\r\n    function breeding(uint _firstChickenId, uint _secondChickenId)\r\n        external\r\n        onlyOwnerOf(_firstChickenId)\r\n        onlyOwnerOf(_secondChickenId)\r\n    {\r\n        require(_firstChickenId != _secondChickenId);\r\n        Chicken storage firstChicken = chickens[_firstChickenId];\r\n        Chicken storage secondChicken = chickens[_secondChickenId];\r\n        require(_isBreedable(firstChicken) && _isBreedable(secondChicken));\r\n        uint _targetDna = secondChicken.dna % dnaModulus;\r\n        uint newDna = (firstChicken.dna + _targetDna) / 2;\r\n        _createEgg(\"NewChicken\", newDna);\r\n        _triggerCooldownBreeding(firstChicken, secondChicken);\r\n    }\r\n}\r\n",
  "sourcePath": "C:\\Users\\sgs98\\Desktop\\ei\\CryptoChickens\\client\\contracts\\chickenbreeding.sol",
  "compiler": {
    "name": "solc",
    "version": "0.5.16+commit.9c3226ce.Emscripten.clang"
  },
  "schemaVersion": "3.4.9",
  "updatedAt": "2022-08-31T09:20:01.716Z",
  "devdoc": {
    "methods": {
      "isOwner()": {
        "return": "true if `msg.sender` is the owner of the contract."
      },
      "owner()": {
        "return": "the address of the owner."
      },
      "renounceOwnership()": {
        "details": "Allows the current owner to relinquish control of the contract."
      },
      "transferOwnership(address)": {
        "details": "Allows the current owner to transfer control of the contract to a newOwner.",
        "params": {
          "newOwner": "The address to transfer ownership to."
        }
      }
    }
  },
  "userdoc": {
    "methods": {
      "renounceOwnership()": {
        "notice": "Renouncing to ownership will leave the contract without an owner. It will not be possible to call the functions with the `onlyOwner` modifier anymore."
      }
    }
  }
}