{
  "contractName": "ChickenFactory",
  "abi": [
    {
      "anonymous": false,
      "inputs": [
        {
          "indexed": false,
          "internalType": "bool",
          "name": "result",
          "type": "bool"
        },
        {
          "indexed": false,
          "internalType": "string",
          "name": "resultString",
          "type": "string"
        }
      ],
      "name": "BattleResolve",
      "type": "event"
    },
    {
      "anonymous": false,
      "inputs": [
        {
          "indexed": false,
          "internalType": "uint256",
          "name": "chickenId",
          "type": "uint256"
        },
        {
          "indexed": false,
          "internalType": "string",
          "name": "name",
          "type": "string"
        },
        {
          "indexed": false,
          "internalType": "uint256",
          "name": "dna",
          "type": "uint256"
        }
      ],
      "name": "NewChicken",
      "type": "event"
    },
    {
      "anonymous": false,
      "inputs": [
        {
          "indexed": true,
          "internalType": "address",
          "name": "previousOwner",
          "type": "address"
        },
        {
          "indexed": true,
          "internalType": "address",
          "name": "newOwner",
          "type": "address"
        }
      ],
      "name": "OwnershipTransferred",
      "type": "event"
    },
    {
      "constant": true,
      "inputs": [
        {
          "internalType": "uint256",
          "name": "",
          "type": "uint256"
        }
      ],
      "name": "chickenToOwner",
      "outputs": [
        {
          "internalType": "address",
          "name": "",
          "type": "address"
        }
      ],
      "payable": false,
      "stateMutability": "view",
      "type": "function"
    },
    {
      "constant": true,
      "inputs": [
        {
          "internalType": "uint256",
          "name": "",
          "type": "uint256"
        }
      ],
      "name": "chickens",
      "outputs": [
        {
          "internalType": "string",
          "name": "name",
          "type": "string"
        },
        {
          "internalType": "uint256",
          "name": "dna",
          "type": "uint256"
        },
        {
          "internalType": "uint32",
          "name": "level",
          "type": "uint32"
        },
        {
          "internalType": "uint32",
          "name": "readyTime",
          "type": "uint32"
        },
        {
          "internalType": "uint32",
          "name": "breedingTime",
          "type": "uint32"
        },
        {
          "internalType": "uint32",
          "name": "gestationTime",
          "type": "uint32"
        },
        {
          "internalType": "uint16",
          "name": "winCount",
          "type": "uint16"
        },
        {
          "internalType": "uint16",
          "name": "lossCount",
          "type": "uint16"
        }
      ],
      "payable": false,
      "stateMutability": "view",
      "type": "function"
    },
    {
      "constant": true,
      "inputs": [],
      "name": "isOwner",
      "outputs": [
        {
          "internalType": "bool",
          "name": "",
          "type": "bool"
        }
      ],
      "payable": false,
      "stateMutability": "view",
      "type": "function"
    },
    {
      "constant": true,
      "inputs": [],
      "name": "owner",
      "outputs": [
        {
          "internalType": "address payable",
          "name": "",
          "type": "address"
        }
      ],
      "payable": false,
      "stateMutability": "view",
      "type": "function"
    },
    {
      "constant": false,
      "inputs": [],
      "name": "renounceOwnership",
      "outputs": [],
      "payable": false,
      "stateMutability": "nonpayable",
      "type": "function"
    },
    {
      "constant": false,
      "inputs": [
        {
          "internalType": "address payable",
          "name": "newOwner",
          "type": "address"
        }
      ],
      "name": "transferOwnership",
      "outputs": [],
      "payable": false,
      "stateMutability": "nonpayable",
      "type": "function"
    },
    {
      "constant": false,
      "inputs": [
        {
          "internalType": "string",
          "name": "_name",
          "type": "string"
        }
      ],
      "name": "createRandomChicken",
      "outputs": [],
      "payable": true,
      "stateMutability": "payable",
      "type": "function"
    },
    {
      "constant": true,
      "inputs": [
        {
          "internalType": "uint256",
          "name": "_id",
          "type": "uint256"
        }
      ],
      "name": "getChickenFromId",
      "outputs": [
        {
          "internalType": "string",
          "name": "name",
          "type": "string"
        },
        {
          "internalType": "uint256",
          "name": "dna",
          "type": "uint256"
        },
        {
          "internalType": "uint256",
          "name": "level",
          "type": "uint256"
        },
        {
          "internalType": "uint256",
          "name": "readyTime",
          "type": "uint256"
        },
        {
          "internalType": "uint256",
          "name": "winCount",
          "type": "uint256"
        },
        {
          "internalType": "uint256",
          "name": "lossCount",
          "type": "uint256"
        },
        {
          "internalType": "uint256",
          "name": "breedingTime",
          "type": "uint256"
        },
        {
          "internalType": "uint256",
          "name": "gestationTime",
          "type": "uint256"
        }
      ],
      "payable": false,
      "stateMutability": "view",
      "type": "function"
    },
    {
      "constant": true,
      "inputs": [],
      "name": "getChickenLength",
      "outputs": [
        {
          "internalType": "uint256",
          "name": "",
          "type": "uint256"
        }
      ],
      "payable": false,
      "stateMutability": "view",
      "type": "function"
    },
    {
      "constant": true,
      "inputs": [],
      "name": "getRewards",
      "outputs": [
        {
          "internalType": "uint256",
          "name": "",
          "type": "uint256"
        }
      ],
      "payable": false,
      "stateMutability": "view",
      "type": "function"
    },
    {
      "constant": false,
      "inputs": [
        {
          "internalType": "uint256",
          "name": "_fee",
          "type": "uint256"
        }
      ],
      "name": "setCreateChickenFee",
      "outputs": [],
      "payable": false,
      "stateMutability": "nonpayable",
      "type": "function"
    },
    {
      "constant": true,
      "inputs": [],
      "name": "getCreateChickenFee",
      "outputs": [
        {
          "internalType": "uint256",
          "name": "",
          "type": "uint256"
        }
      ],
      "payable": false,
      "stateMutability": "view",
      "type": "function"
    },
    {
      "constant": false,
      "inputs": [
        {
          "internalType": "uint256",
          "name": "_rewards",
          "type": "uint256"
        }
      ],
      "name": "setRewards",
      "outputs": [],
      "payable": false,
      "stateMutability": "nonpayable",
      "type": "function"
    },
    {
      "constant": true,
      "inputs": [],
      "name": "getTime",
      "outputs": [
        {
          "internalType": "uint256",
          "name": "",
          "type": "uint256"
        }
      ],
      "payable": false,
      "stateMutability": "view",
      "type": "function"
    }
  ],
  "bytecode": "0x60806040526010600155600154600a0a600255620151806003556203f4806004556202a30060055566038d7ea4c68000600655662386f26fc10000600755336000806101000a81548173ffffffffffffffffffffffffffffffffffffffff021916908373ffffffffffffffffffffffffffffffffffffffff1602179055506000809054906101000a900473ffffffffffffffffffffffffffffffffffffffff1673ffffffffffffffffffffffffffffffffffffffff16600073ffffffffffffffffffffffffffffffffffffffff167f8be0079c531659141344cd1fd0a4f28419497f9722a3daafe3b4186f6b6457e060405160405180910390a3611261806101086000396000f3fe6080604052600436106100dd5760003560e01c8063bb2f642d1161007f578063e33d878d11610059578063e33d878d14610480578063e8c07ad0146104ab578063f2fde38b14610526578063f7b168ec14610577576100dd565b8063bb2f642d14610325578063c7a29c6f14610360578063d8f7d3341461039b576100dd565b8063715018a6116100bb578063715018a6146101635780638da5cb5b1461017a5780638f32d59b146101d15780638fa07c4814610200576100dd565b80630572b0cc146100e25780633bc18e681461010d578063557ed1ba14610138575b600080fd5b3480156100ee57600080fd5b506100f7610632565b6040518082815260200191505060405180910390f35b34801561011957600080fd5b5061012261063c565b6040518082815260200191505060405180910390f35b34801561014457600080fd5b5061014d610649565b6040518082815260200191505060405180910390f35b34801561016f57600080fd5b50610178610651565b005b34801561018657600080fd5b5061018f610721565b604051808273ffffffffffffffffffffffffffffffffffffffff1673ffffffffffffffffffffffffffffffffffffffff16815260200191505060405180910390f35b3480156101dd57600080fd5b506101e661074a565b604051808215151515815260200191505060405180910390f35b34801561020c57600080fd5b506102396004803603602081101561022357600080fd5b81019080803590602001909291905050506107a1565b60405180806020018981526020018863ffffffff1663ffffffff1681526020018763ffffffff1663ffffffff1681526020018663ffffffff1663ffffffff1681526020018563ffffffff1663ffffffff1681526020018461ffff1661ffff1681526020018361ffff1661ffff16815260200182810382528a818151815260200191508051906020019080838360005b838110156102e35780820151818401526020810190506102c8565b50505050905090810190601f1680156103105780820380516001836020036101000a031916815260200191505b50995050505050505050505060405180910390f35b34801561033157600080fd5b5061035e6004803603602081101561034857600080fd5b81019080803590602001909291905050506108ea565b005b34801561036c57600080fd5b506103996004803603602081101561038357600080fd5b8101908080359060200190929190505050610905565b005b3480156103a757600080fd5b506103d4600480360360208110156103be57600080fd5b8101908080359060200190929190505050610920565b604051808060200189815260200188815260200187815260200186815260200185815260200184815260200183815260200182810382528a818151815260200191508051906020019080838360005b8381101561043e578082015181840152602081019050610423565b50505050905090810190601f16801561046b5780820380516001836020036101000a031916815260200191505b50995050505050505050505060405180910390f35b34801561048c57600080fd5b50610495610b6c565b6040518082815260200191505060405180910390f35b3480156104b757600080fd5b506104e4600480360360208110156104ce57600080fd5b8101908080359060200190929190505050610b76565b604051808273ffffffffffffffffffffffffffffffffffffffff1673ffffffffffffffffffffffffffffffffffffffff16815260200191505060405180910390f35b34801561053257600080fd5b506105756004803603602081101561054957600080fd5b81019080803573ffffffffffffffffffffffffffffffffffffffff169060200190929190505050610ba9565b005b6106306004803603602081101561058d57600080fd5b81019080803590602001906401000000008111156105aa57600080fd5b8201836020820111156105bc57600080fd5b803590602001918460018302840111640100000000831117156105de57600080fd5b91908080601f016020809104026020016040519081016040528093929190818152602001838380828437600081840152601f19601f820116905080830192505050505050509192919290505050610bc6565b005b6000600654905090565b6000600880549050905090565b600042905090565b61065961074a565b61066257600080fd5b600073ffffffffffffffffffffffffffffffffffffffff166000809054906101000a900473ffffffffffffffffffffffffffffffffffffffff1673ffffffffffffffffffffffffffffffffffffffff167f8be0079c531659141344cd1fd0a4f28419497f9722a3daafe3b4186f6b6457e060405160405180910390a360008060006101000a81548173ffffffffffffffffffffffffffffffffffffffff021916908373ffffffffffffffffffffffffffffffffffffffff160217905550565b60008060009054906101000a900473ffffffffffffffffffffffffffffffffffffffff16905090565b60008060009054906101000a900473ffffffffffffffffffffffffffffffffffffffff1673ffffffffffffffffffffffffffffffffffffffff163373ffffffffffffffffffffffffffffffffffffffff1614905090565b600881815481106107ae57fe5b9060005260206000209060030201600091509050806000018054600181600116156101000203166002900480601f01602080910402602001604051908101604052809291908181526020018280546001816001161561010002031660029004801561085a5780601f1061082f5761010080835404028352916020019161085a565b820191906000526020600020905b81548152906001019060200180831161083d57829003601f168201915b5050505050908060010154908060020160009054906101000a900463ffffffff16908060020160049054906101000a900463ffffffff16908060020160089054906101000a900463ffffffff169080600201600c9054906101000a900463ffffffff16908060020160109054906101000a900461ffff16908060020160129054906101000a900461ffff16905088565b6108f261074a565b6108fb57600080fd5b8060078190555050565b61090d61074a565b61091657600080fd5b8060068190555050565b60606000806000806000806000600880549050891061093e57600080fd5b610946611122565b60088a8154811061095357fe5b906000526020600020906003020160405180610100016040529081600082018054600181600116156101000203166002900480601f016020809104026020016040519081016040528092919081815260200182805460018160011615610100020316600290048015610a065780601f106109db57610100808354040283529160200191610a06565b820191906000526020600020905b8154815290600101906020018083116109e957829003601f168201915b50505050508152602001600182015481526020016002820160009054906101000a900463ffffffff1663ffffffff1663ffffffff1681526020016002820160049054906101000a900463ffffffff1663ffffffff1663ffffffff1681526020016002820160089054906101000a900463ffffffff1663ffffffff1663ffffffff16815260200160028201600c9054906101000a900463ffffffff1663ffffffff1663ffffffff1681526020016002820160109054906101000a900461ffff1661ffff1661ffff1681526020016002820160129054906101000a900461ffff1661ffff1661ffff1681525050905080600001518160200151826040015183606001518460c001518560e0015186608001518760a001518797508563ffffffff1695508463ffffffff1694508361ffff1693508261ffff1692508163ffffffff1691508063ffffffff1690509850985098509850985098509850985050919395975091939597565b6000600754905090565b60096020528060005260406000206000915054906101000a900473ffffffffffffffffffffffffffffffffffffffff1681565b610bb161074a565b610bba57600080fd5b610bc381610c4b565b50565b6007543414610bd457600080fd5b6002600a60003373ffffffffffffffffffffffffffffffffffffffff1673ffffffffffffffffffffffffffffffffffffffff168152602001908152602001600020541115610c2157600080fd5b6000610c2c82610d43565b905060648181610c3857fe5b0681039050610c478282610dd1565b5050565b600073ffffffffffffffffffffffffffffffffffffffff168173ffffffffffffffffffffffffffffffffffffffff161415610c8557600080fd5b8073ffffffffffffffffffffffffffffffffffffffff166000809054906101000a900473ffffffffffffffffffffffffffffffffffffffff1673ffffffffffffffffffffffffffffffffffffffff167f8be0079c531659141344cd1fd0a4f28419497f9722a3daafe3b4186f6b6457e060405160405180910390a3806000806101000a81548173ffffffffffffffffffffffffffffffffffffffff021916908373ffffffffffffffffffffffffffffffffffffffff16021790555050565b600080826040516020018082805190602001908083835b60208310610d7d5780518252602082019150602081019050602083039250610d5a565b6001836020036101000a0380198251168184511680821785525050505050509050019150506040516020818303038152906040528051906020012060001c90506002548181610dc857fe5b06915050919050565b600060016008604051806101000160405280868152602001858152602001600163ffffffff1681526020014263ffffffff1681526020014263ffffffff1681526020014263ffffffff168152602001600061ffff168152602001600061ffff16815250908060018154018082558091505090600182039060005260206000209060030201600090919290919091506000820151816000019080519060200190610e7b929190611187565b506020820151816001015560408201518160020160006101000a81548163ffffffff021916908363ffffffff16021790555060608201518160020160046101000a81548163ffffffff021916908363ffffffff16021790555060808201518160020160086101000a81548163ffffffff021916908363ffffffff16021790555060a082015181600201600c6101000a81548163ffffffff021916908363ffffffff16021790555060c08201518160020160106101000a81548161ffff021916908361ffff16021790555060e08201518160020160126101000a81548161ffff021916908361ffff1602179055505050039050336009600083815260200190815260200160002060006101000a81548173ffffffffffffffffffffffffffffffffffffffff021916908373ffffffffffffffffffffffffffffffffffffffff1602179055506110126001600a60003373ffffffffffffffffffffffffffffffffffffffff1673ffffffffffffffffffffffffffffffffffffffff1681526020019081526020016000205461110690919063ffffffff16565b600a60003373ffffffffffffffffffffffffffffffffffffffff1673ffffffffffffffffffffffffffffffffffffffff168152602001908152602001600020819055507f1f0245df64b6ba504325be583e0ea6746dcc8043b3cd2e50f4a45558d0f47af38184846040518084815260200180602001838152602001828103825284818151815260200191508051906020019080838360005b838110156110c55780820151818401526020810190506110aa565b50505050905090810190601f1680156110f25780820380516001836020036101000a031916815260200191505b5094505050505060405180910390a1505050565b60008082840190508381101561111857fe5b8091505092915050565b6040518061010001604052806060815260200160008152602001600063ffffffff168152602001600063ffffffff168152602001600063ffffffff168152602001600063ffffffff168152602001600061ffff168152602001600061ffff1681525090565b828054600181600116156101000203166002900490600052602060002090601f016020900481019282601f106111c857805160ff19168380011785556111f6565b828001600101855582156111f6579182015b828111156111f55782518255916020019190600101906111da565b5b5090506112039190611207565b5090565b61122991905b8082111561122557600081600090555060010161120d565b5090565b9056fea265627a7a723158201eb50cd4049b6be538384505d3f969fe7bea58a36e744c8921532680f9e3ebf064736f6c63430005100032",
  "source": "//SPDX-License-Identifier: MIT\r\npragma solidity >=0.5.0 <0.6.0;\r\n\r\nimport \"./ownable.sol\";\r\nimport \"./safemath.sol\";\r\n\r\ncontract ChickenFactory is Ownable {\r\n    using SafeMath for uint256;\r\n    using SafeMath32 for uint32;\r\n    using SafeMath16 for uint16;\r\n\r\n    event NewChicken(uint chickenId, string name, uint dna);\r\n    event BattleResolve(bool result, string resultString);\r\n\r\n    uint dnaDigits = 16;\r\n    uint dnaModulus = 10**dnaDigits;\r\n    uint cooldownTime = 1 days;\r\n    uint breedingCooldownTime = 3 days;\r\n    uint gestationCooldownTime = 2 days;\r\n    uint rewards = 0.001 ether;\r\n    uint createChickenFee = 0.01 ether;\r\n\r\n    struct Chicken {\r\n        string name;\r\n        uint dna;\r\n        uint32 level;\r\n        uint32 readyTime;\r\n        //cuando tiene un hijo y pilla cooldown\r\n        uint32 breedingTime;\r\n        //el hijo cuando nace y tiene que crecer\r\n        uint32 gestationTime;\r\n        uint16 winCount;\r\n        uint16 lossCount;\r\n    }\r\n\r\n    Chicken[] public chickens;\r\n\r\n    mapping(uint => address) public chickenToOwner;\r\n    mapping(address => uint) ownerChickenCount;\r\n    mapping(address => uint) pendingWithdraws;\r\n\r\n    function _createChicken(string memory _name, uint _dna) internal {\r\n        uint id = chickens.push(\r\n            Chicken(_name, _dna, 1, uint32(now), uint32(now), uint32(now), 0, 0)\r\n        ) - 1;\r\n        chickenToOwner[id] = msg.sender;\r\n        ownerChickenCount[msg.sender] = ownerChickenCount[msg.sender].add(1);\r\n        emit NewChicken(id, _name, _dna);\r\n    }\r\n\r\n    function _createEgg(string memory _name, uint _dna) internal {\r\n        uint id = chickens.push(\r\n            Chicken(\r\n                _name,\r\n                _dna,\r\n                1,\r\n                uint32(now + gestationCooldownTime),\r\n                uint32(now + gestationCooldownTime),\r\n                uint32(now + gestationCooldownTime),\r\n                0,\r\n                0\r\n            )\r\n        ) - 1;\r\n        chickenToOwner[id] = msg.sender;\r\n        ownerChickenCount[msg.sender] = ownerChickenCount[msg.sender].add(1);\r\n        emit NewChicken(id, _name, _dna);\r\n    }\r\n\r\n    function _generateRandomDna(string memory _str)\r\n        private\r\n        view\r\n        returns (uint)\r\n    {\r\n        uint rand = uint(keccak256(abi.encodePacked(_str)));\r\n        return rand % dnaModulus;\r\n    }\r\n\r\n    function createRandomChicken(string memory _name) public payable {\r\n        require(msg.value == createChickenFee);\r\n        require(ownerChickenCount[msg.sender] <= 2);\r\n        uint randDna = _generateRandomDna(_name);\r\n        randDna = randDna - (randDna % 100);\r\n        _createChicken(_name, randDna);\r\n    }\r\n\r\n    function getChickenFromId(uint _id)\r\n        public\r\n        view\r\n        returns (\r\n            string memory name,\r\n            uint dna,\r\n            uint level,\r\n            uint readyTime,\r\n            uint winCount,\r\n            uint lossCount,\r\n            uint breedingTime,\r\n            uint gestationTime\r\n        )\r\n    {\r\n        require(_id < chickens.length);\r\n        Chicken memory _chicken = chickens[_id];\r\n        return (\r\n            _chicken.name,\r\n            _chicken.dna,\r\n            _chicken.level,\r\n            _chicken.readyTime,\r\n            _chicken.winCount,\r\n            _chicken.lossCount,\r\n            _chicken.breedingTime,\r\n            _chicken.gestationTime\r\n        );\r\n    }\r\n\r\n    function getChickenLength() public view returns (uint) {\r\n        return chickens.length;\r\n    }\r\n\r\n    function getRewards() public view returns (uint) {\r\n        return rewards;\r\n    }\r\n\r\n    function setCreateChickenFee(uint _fee) external onlyOwner {\r\n        createChickenFee = _fee;\r\n    }\r\n\r\n    function getCreateChickenFee() public view returns (uint) {\r\n        return createChickenFee;\r\n    }\r\n\r\n    function setRewards(uint _rewards) external onlyOwner {\r\n        rewards = _rewards;\r\n    }\r\n\r\n    function getTime() public view returns (uint) {\r\n        return now;\r\n    }\r\n}\r\n",
  "sourcePath": "C:\\Users\\sgs98\\Desktop\\ei\\CryptoChickens\\contracts\\chickenfactory.sol",
  "compiler": {
    "name": "solc",
    "version": "0.5.16+commit.9c3226ce.Emscripten.clang"
  },
  "schemaVersion": "3.4.9",
  "updatedAt": "2022-08-31T22:29:16.838Z",
  "devdoc": {
    "methods": {
      "isOwner()": {
        "return": "true if `msg.sender` is the owner of the contract."
      },
      "owner()": {
        "return": "the address of the owner."
      },
      "renounceOwnership()": {
        "details": "Allows the current owner to relinquish control of the contract."
      },
      "transferOwnership(address)": {
        "details": "Allows the current owner to transfer control of the contract to a newOwner.",
        "params": {
          "newOwner": "The address to transfer ownership to."
        }
      }
    }
  },
  "userdoc": {
    "methods": {
      "renounceOwnership()": {
        "notice": "Renouncing to ownership will leave the contract without an owner. It will not be possible to call the functions with the `onlyOwner` modifier anymore."
      }
    }
  }
}