{
  "contractName": "ChickenOwnership",
  "abi": [
    {
      "anonymous": false,
      "inputs": [
        {
          "indexed": true,
          "internalType": "address",
          "name": "_owner",
          "type": "address"
        },
        {
          "indexed": true,
          "internalType": "address",
          "name": "_approved",
          "type": "address"
        },
        {
          "indexed": true,
          "internalType": "uint256",
          "name": "_tokenId",
          "type": "uint256"
        }
      ],
      "name": "Approval",
      "type": "event"
    },
    {
      "anonymous": false,
      "inputs": [
        {
          "indexed": false,
          "internalType": "bool",
          "name": "result",
          "type": "bool"
        },
        {
          "indexed": false,
          "internalType": "string",
          "name": "resultString",
          "type": "string"
        }
      ],
      "name": "BattleResolve",
      "type": "event"
    },
    {
      "anonymous": false,
      "inputs": [
        {
          "indexed": false,
          "internalType": "uint256",
          "name": "chickenId",
          "type": "uint256"
        },
        {
          "indexed": false,
          "internalType": "string",
          "name": "name",
          "type": "string"
        },
        {
          "indexed": false,
          "internalType": "uint256",
          "name": "dna",
          "type": "uint256"
        }
      ],
      "name": "NewChicken",
      "type": "event"
    },
    {
      "anonymous": false,
      "inputs": [
        {
          "indexed": true,
          "internalType": "address",
          "name": "previousOwner",
          "type": "address"
        },
        {
          "indexed": true,
          "internalType": "address",
          "name": "newOwner",
          "type": "address"
        }
      ],
      "name": "OwnershipTransferred",
      "type": "event"
    },
    {
      "anonymous": false,
      "inputs": [
        {
          "indexed": true,
          "internalType": "address",
          "name": "_from",
          "type": "address"
        },
        {
          "indexed": true,
          "internalType": "address",
          "name": "_to",
          "type": "address"
        },
        {
          "indexed": true,
          "internalType": "uint256",
          "name": "_tokenId",
          "type": "uint256"
        }
      ],
      "name": "Transfer",
      "type": "event"
    },
    {
      "constant": false,
      "inputs": [
        {
          "internalType": "uint256",
          "name": "_chickenId",
          "type": "uint256"
        },
        {
          "internalType": "uint256",
          "name": "_difficulty",
          "type": "uint256"
        }
      ],
      "name": "attack",
      "outputs": [],
      "payable": true,
      "stateMutability": "payable",
      "type": "function"
    },
    {
      "constant": false,
      "inputs": [
        {
          "internalType": "uint256",
          "name": "_firstChickenId",
          "type": "uint256"
        },
        {
          "internalType": "uint256",
          "name": "_secondChickenId",
          "type": "uint256"
        }
      ],
      "name": "breeding",
      "outputs": [],
      "payable": false,
      "stateMutability": "nonpayable",
      "type": "function"
    },
    {
      "constant": false,
      "inputs": [
        {
          "internalType": "uint256",
          "name": "_chickenId",
          "type": "uint256"
        },
        {
          "internalType": "uint256",
          "name": "_newDna",
          "type": "uint256"
        }
      ],
      "name": "changeDna",
      "outputs": [],
      "payable": false,
      "stateMutability": "nonpayable",
      "type": "function"
    },
    {
      "constant": false,
      "inputs": [
        {
          "internalType": "uint256",
          "name": "_chickenId",
          "type": "uint256"
        },
        {
          "internalType": "string",
          "name": "_newName",
          "type": "string"
        }
      ],
      "name": "changeName",
      "outputs": [],
      "payable": false,
      "stateMutability": "nonpayable",
      "type": "function"
    },
    {
      "constant": true,
      "inputs": [
        {
          "internalType": "uint256",
          "name": "",
          "type": "uint256"
        }
      ],
      "name": "chickenToOwner",
      "outputs": [
        {
          "internalType": "address",
          "name": "",
          "type": "address"
        }
      ],
      "payable": false,
      "stateMutability": "view",
      "type": "function"
    },
    {
      "constant": true,
      "inputs": [
        {
          "internalType": "uint256",
          "name": "",
          "type": "uint256"
        }
      ],
      "name": "chickens",
      "outputs": [
        {
          "internalType": "string",
          "name": "name",
          "type": "string"
        },
        {
          "internalType": "uint256",
          "name": "dna",
          "type": "uint256"
        },
        {
          "internalType": "uint32",
          "name": "level",
          "type": "uint32"
        },
        {
          "internalType": "uint32",
          "name": "readyTime",
          "type": "uint32"
        },
        {
          "internalType": "uint32",
          "name": "breedingTime",
          "type": "uint32"
        },
        {
          "internalType": "uint32",
          "name": "gestationTime",
          "type": "uint32"
        },
        {
          "internalType": "uint16",
          "name": "winCount",
          "type": "uint16"
        },
        {
          "internalType": "uint16",
          "name": "lossCount",
          "type": "uint16"
        }
      ],
      "payable": false,
      "stateMutability": "view",
      "type": "function"
    },
    {
      "constant": false,
      "inputs": [
        {
          "internalType": "string",
          "name": "_name",
          "type": "string"
        }
      ],
      "name": "createRandomChicken",
      "outputs": [],
      "payable": true,
      "stateMutability": "payable",
      "type": "function"
    },
    {
      "constant": true,
      "inputs": [
        {
          "internalType": "uint256",
          "name": "_id",
          "type": "uint256"
        }
      ],
      "name": "getChickenFromId",
      "outputs": [
        {
          "internalType": "string",
          "name": "name",
          "type": "string"
        },
        {
          "internalType": "uint256",
          "name": "dna",
          "type": "uint256"
        },
        {
          "internalType": "uint256",
          "name": "level",
          "type": "uint256"
        },
        {
          "internalType": "uint256",
          "name": "readyTime",
          "type": "uint256"
        },
        {
          "internalType": "uint256",
          "name": "winCount",
          "type": "uint256"
        },
        {
          "internalType": "uint256",
          "name": "lossCount",
          "type": "uint256"
        },
        {
          "internalType": "uint256",
          "name": "breedingTime",
          "type": "uint256"
        },
        {
          "internalType": "uint256",
          "name": "gestationTime",
          "type": "uint256"
        }
      ],
      "payable": false,
      "stateMutability": "view",
      "type": "function"
    },
    {
      "constant": true,
      "inputs": [],
      "name": "getChickenLength",
      "outputs": [
        {
          "internalType": "uint256",
          "name": "",
          "type": "uint256"
        }
      ],
      "payable": false,
      "stateMutability": "view",
      "type": "function"
    },
    {
      "constant": true,
      "inputs": [
        {
          "internalType": "address",
          "name": "_owner",
          "type": "address"
        }
      ],
      "name": "getChickensByOwner",
      "outputs": [
        {
          "internalType": "uint256[]",
          "name": "",
          "type": "uint256[]"
        }
      ],
      "payable": false,
      "stateMutability": "view",
      "type": "function"
    },
    {
      "constant": true,
      "inputs": [],
      "name": "getCreateChickenFee",
      "outputs": [
        {
          "internalType": "uint256",
          "name": "",
          "type": "uint256"
        }
      ],
      "payable": false,
      "stateMutability": "view",
      "type": "function"
    },
    {
      "constant": true,
      "inputs": [],
      "name": "getFeeLevelUpFee",
      "outputs": [
        {
          "internalType": "uint256",
          "name": "",
          "type": "uint256"
        }
      ],
      "payable": false,
      "stateMutability": "view",
      "type": "function"
    },
    {
      "constant": true,
      "inputs": [],
      "name": "getRewards",
      "outputs": [
        {
          "internalType": "uint256",
          "name": "",
          "type": "uint256"
        }
      ],
      "payable": false,
      "stateMutability": "view",
      "type": "function"
    },
    {
      "constant": true,
      "inputs": [],
      "name": "getTime",
      "outputs": [
        {
          "internalType": "uint256",
          "name": "",
          "type": "uint256"
        }
      ],
      "payable": false,
      "stateMutability": "view",
      "type": "function"
    },
    {
      "constant": true,
      "inputs": [],
      "name": "getWinningProbabilities",
      "outputs": [
        {
          "internalType": "uint256",
          "name": "",
          "type": "uint256"
        },
        {
          "internalType": "uint256",
          "name": "",
          "type": "uint256"
        },
        {
          "internalType": "uint256",
          "name": "",
          "type": "uint256"
        }
      ],
      "payable": false,
      "stateMutability": "view",
      "type": "function"
    },
    {
      "constant": true,
      "inputs": [
        {
          "internalType": "address",
          "name": "_owner",
          "type": "address"
        }
      ],
      "name": "getWithdrawalBalance",
      "outputs": [
        {
          "internalType": "uint256",
          "name": "",
          "type": "uint256"
        }
      ],
      "payable": false,
      "stateMutability": "view",
      "type": "function"
    },
    {
      "constant": true,
      "inputs": [],
      "name": "isOwner",
      "outputs": [
        {
          "internalType": "bool",
          "name": "",
          "type": "bool"
        }
      ],
      "payable": false,
      "stateMutability": "view",
      "type": "function"
    },
    {
      "constant": false,
      "inputs": [
        {
          "internalType": "uint256",
          "name": "_chickenId",
          "type": "uint256"
        }
      ],
      "name": "levelUp",
      "outputs": [],
      "payable": true,
      "stateMutability": "payable",
      "type": "function"
    },
    {
      "constant": true,
      "inputs": [],
      "name": "owner",
      "outputs": [
        {
          "internalType": "address payable",
          "name": "",
          "type": "address"
        }
      ],
      "payable": false,
      "stateMutability": "view",
      "type": "function"
    },
    {
      "constant": false,
      "inputs": [],
      "name": "renounceOwnership",
      "outputs": [],
      "payable": false,
      "stateMutability": "nonpayable",
      "type": "function"
    },
    {
      "constant": false,
      "inputs": [
        {
          "internalType": "uint256",
          "name": "_fee",
          "type": "uint256"
        }
      ],
      "name": "setCreateChickenFee",
      "outputs": [],
      "payable": false,
      "stateMutability": "nonpayable",
      "type": "function"
    },
    {
      "constant": false,
      "inputs": [
        {
          "internalType": "uint256",
          "name": "_fee",
          "type": "uint256"
        }
      ],
      "name": "setLevelUpFee",
      "outputs": [],
      "payable": false,
      "stateMutability": "nonpayable",
      "type": "function"
    },
    {
      "constant": false,
      "inputs": [
        {
          "internalType": "uint256",
          "name": "_rewards",
          "type": "uint256"
        }
      ],
      "name": "setRewards",
      "outputs": [],
      "payable": false,
      "stateMutability": "nonpayable",
      "type": "function"
    },
    {
      "constant": false,
      "inputs": [
        {
          "internalType": "uint256",
          "name": "_easy",
          "type": "uint256"
        },
        {
          "internalType": "uint256",
          "name": "_normal",
          "type": "uint256"
        },
        {
          "internalType": "uint256",
          "name": "_difficult",
          "type": "uint256"
        }
      ],
      "name": "setWinningProbabilities",
      "outputs": [],
      "payable": false,
      "stateMutability": "nonpayable",
      "type": "function"
    },
    {
      "constant": false,
      "inputs": [
        {
          "internalType": "address payable",
          "name": "newOwner",
          "type": "address"
        }
      ],
      "name": "transferOwnership",
      "outputs": [],
      "payable": false,
      "stateMutability": "nonpayable",
      "type": "function"
    },
    {
      "constant": false,
      "inputs": [],
      "name": "withdraw",
      "outputs": [],
      "payable": false,
      "stateMutability": "nonpayable",
      "type": "function"
    },
    {
      "constant": false,
      "inputs": [
        {
          "internalType": "address",
          "name": "user",
          "type": "address"
        }
      ],
      "name": "withdrawUser",
      "outputs": [],
      "payable": false,
      "stateMutability": "nonpayable",
      "type": "function"
    },
    {
      "constant": true,
      "inputs": [
        {
          "internalType": "address",
          "name": "_owner",
          "type": "address"
        }
      ],
      "name": "balanceOf",
      "outputs": [
        {
          "internalType": "uint256",
          "name": "",
          "type": "uint256"
        }
      ],
      "payable": false,
      "stateMutability": "view",
      "type": "function"
    },
    {
      "constant": true,
      "inputs": [
        {
          "internalType": "uint256",
          "name": "_tokenId",
          "type": "uint256"
        }
      ],
      "name": "ownerOf",
      "outputs": [
        {
          "internalType": "address",
          "name": "",
          "type": "address"
        }
      ],
      "payable": false,
      "stateMutability": "view",
      "type": "function"
    },
    {
      "constant": false,
      "inputs": [
        {
          "internalType": "address",
          "name": "_from",
          "type": "address"
        },
        {
          "internalType": "address",
          "name": "_to",
          "type": "address"
        },
        {
          "internalType": "uint256",
          "name": "_tokenId",
          "type": "uint256"
        }
      ],
      "name": "transferFrom",
      "outputs": [],
      "payable": true,
      "stateMutability": "payable",
      "type": "function"
    },
    {
      "constant": false,
      "inputs": [
        {
          "internalType": "address",
          "name": "_approved",
          "type": "address"
        },
        {
          "internalType": "uint256",
          "name": "_tokenId",
          "type": "uint256"
        }
      ],
      "name": "approve",
      "outputs": [],
      "payable": true,
      "stateMutability": "payable",
      "type": "function"
    },
    {
      "constant": true,
      "inputs": [
        {
          "internalType": "uint256",
          "name": "_tokenId",
          "type": "uint256"
        }
      ],
      "name": "getApproved",
      "outputs": [
        {
          "internalType": "address",
          "name": "",
          "type": "address"
        }
      ],
      "payable": false,
      "stateMutability": "view",
      "type": "function"
    }
  ],
  "bytecode": "0x60806040526010600155600154600a0a600255620151806003556203f4806004556202a30060055566038d7ea4c68000600655662386f26fc1000060075566038d7ea4c68000600c556000600d556050600e55603c600f556028601055336000806101000a81548173ffffffffffffffffffffffffffffffffffffffff021916908373ffffffffffffffffffffffffffffffffffffffff1602179055506000809054906101000a900473ffffffffffffffffffffffffffffffffffffffff1673ffffffffffffffffffffffffffffffffffffffff16600073ffffffffffffffffffffffffffffffffffffffff167f8be0079c531659141344cd1fd0a4f28419497f9722a3daafe3b4186f6b6457e060405160405180910390a3612fed806101276000396000f3fe6080604052600436106101e35760003560e01c80638fa07c4811610102578063d8f7d33411610095578063f2fde38b11610064578063f2fde38b14610ba6578063f497193c14610bf7578063f7b168ec14610c30578063fbbe20a914610ceb576101e3565b8063d8f7d334146109e3578063e1fa763814610ac8578063e33d878d14610b00578063e8c07ad014610b2b576101e3565b8063c598b563116100d1578063c598b563146108b7578063c7a29c6f1461091c578063ccf670f814610957578063d02db05214610992576101e3565b80638fa07c4814610621578063aa723c8214610746578063bb2f642d146107ec578063c39cbef114610827576101e3565b8063557ed1ba1161017a578063715018a611610149578063715018a61461053557806386ebede91461054c5780638da5cb5b1461059b5780638f32d59b146105f2576101e3565b8063557ed1ba146103e55780635faf2880146104105780636352211e1461045557806370a08231146104d0576101e3565b806323b872dd116101b657806323b872dd1461030a5780633bc18e68146103785780633ccfd60b146103a35780634827fa80146103ba576101e3565b80630572b0cc146101e8578063081812fc14610213578063095ea7b31461028e5780630ce90ec2146102dc575b600080fd5b3480156101f457600080fd5b506101fd610d30565b6040518082815260200191505060405180910390f35b34801561021f57600080fd5b5061024c6004803603602081101561023657600080fd5b8101908080359060200190929190505050610d3a565b604051808273ffffffffffffffffffffffffffffffffffffffff1673ffffffffffffffffffffffffffffffffffffffff16815260200191505060405180910390f35b6102da600480360360408110156102a457600080fd5b81019080803573ffffffffffffffffffffffffffffffffffffffff16906020019092919080359060200190929190505050610d77565b005b610308600480360360208110156102f257600080fd5b8101908080359060200190929190505050610e95565b005b6103766004803603606081101561032057600080fd5b81019080803573ffffffffffffffffffffffffffffffffffffffff169060200190929190803573ffffffffffffffffffffffffffffffffffffffff16906020019092919080359060200190929190505050611044565b005b34801561038457600080fd5b5061038d611128565b6040518082815260200191505060405180910390f35b3480156103af57600080fd5b506103b8611135565b005b3480156103c657600080fd5b506103cf61119c565b6040518082815260200191505060405180910390f35b3480156103f157600080fd5b506103fa6111a6565b6040518082815260200191505060405180910390f35b34801561041c57600080fd5b506104536004803603604081101561043357600080fd5b8101908080359060200190929190803590602001909291905050506111ae565b005b34801561046157600080fd5b5061048e6004803603602081101561047857600080fd5b8101908080359060200190929190505050611288565b604051808273ffffffffffffffffffffffffffffffffffffffff1673ffffffffffffffffffffffffffffffffffffffff16815260200191505060405180910390f35b3480156104dc57600080fd5b5061051f600480360360208110156104f357600080fd5b81019080803573ffffffffffffffffffffffffffffffffffffffff1690602001909291905050506112c5565b6040518082815260200191505060405180910390f35b34801561054157600080fd5b5061054a61130e565b005b34801561055857600080fd5b506105996004803603606081101561056f57600080fd5b810190808035906020019092919080359060200190929190803590602001909291905050506113de565b005b3480156105a757600080fd5b506105b0611409565b604051808273ffffffffffffffffffffffffffffffffffffffff1673ffffffffffffffffffffffffffffffffffffffff16815260200191505060405180910390f35b3480156105fe57600080fd5b50610607611432565b604051808215151515815260200191505060405180910390f35b34801561062d57600080fd5b5061065a6004803603602081101561064457600080fd5b8101908080359060200190929190505050611489565b60405180806020018981526020018863ffffffff1663ffffffff1681526020018763ffffffff1663ffffffff1681526020018663ffffffff1663ffffffff1681526020018563ffffffff1663ffffffff1681526020018461ffff1661ffff1681526020018361ffff1661ffff16815260200182810382528a818151815260200191508051906020019080838360005b838110156107045780820151818401526020810190506106e9565b50505050905090810190601f1680156107315780820380516001836020036101000a031916815260200191505b50995050505050505050505060405180910390f35b34801561075257600080fd5b506107956004803603602081101561076957600080fd5b81019080803573ffffffffffffffffffffffffffffffffffffffff1690602001909291905050506115d2565b6040518080602001828103825283818151815260200191508051906020019060200280838360005b838110156107d85780820151818401526020810190506107bd565b505050509050019250505060405180910390f35b3480156107f857600080fd5b506108256004803603602081101561080f57600080fd5b81019080803590602001909291905050506116ff565b005b34801561083357600080fd5b506108b56004803603604081101561084a57600080fd5b81019080803590602001909291908035906020019064010000000081111561087157600080fd5b82018360208201111561088357600080fd5b803590602001918460018302840111640100000000831117156108a557600080fd5b909192939192939050505061171a565b005b3480156108c357600080fd5b50610906600480360360208110156108da57600080fd5b81019080803573ffffffffffffffffffffffffffffffffffffffff169060200190929190505050611800565b6040518082815260200191505060405180910390f35b34801561092857600080fd5b506109556004803603602081101561093f57600080fd5b8101908080359060200190929190505050611849565b005b34801561096357600080fd5b506109906004803603602081101561097a57600080fd5b8101908080359060200190929190505050611864565b005b34801561099e57600080fd5b506109e1600480360360208110156109b557600080fd5b81019080803573ffffffffffffffffffffffffffffffffffffffff16906020019092919050505061187f565b005b3480156109ef57600080fd5b50610a1c60048036036020811015610a0657600080fd5b81019080803590602001909291905050506119c9565b604051808060200189815260200188815260200187815260200186815260200185815260200184815260200183815260200182810382528a818151815260200191508051906020019080838360005b83811015610a86578082015181840152602081019050610a6b565b50505050905090810190601f168015610ab35780820380516001836020036101000a031916815260200191505b50995050505050505050505060405180910390f35b610afe60048036036040811015610ade57600080fd5b810190808035906020019092919080359060200190929190505050611c15565b005b348015610b0c57600080fd5b50610b15611f5b565b6040518082815260200191505060405180910390f35b348015610b3757600080fd5b50610b6460048036036020811015610b4e57600080fd5b8101908080359060200190929190505050611f65565b604051808273ffffffffffffffffffffffffffffffffffffffff1673ffffffffffffffffffffffffffffffffffffffff16815260200191505060405180910390f35b348015610bb257600080fd5b50610bf560048036036020811015610bc957600080fd5b81019080803573ffffffffffffffffffffffffffffffffffffffff169060200190929190505050611f98565b005b348015610c0357600080fd5b50610c0c611fb5565b60405180848152602001838152602001828152602001935050505060405180910390f35b610ce960048036036020811015610c4657600080fd5b8101908080359060200190640100000000811115610c6357600080fd5b820183602082011115610c7557600080fd5b80359060200191846001830284011164010000000083111715610c9757600080fd5b91908080601f016020809104026020016040519081016040528093929190818152602001838380828437600081840152601f19601f820116905080830192505050505050509192919290505050611fce565b005b348015610cf757600080fd5b50610d2e60048036036040811015610d0e57600080fd5b810190808035906020019092919080359060200190929190505050612053565b005b6000600654905090565b60006011600083815260200190815260200160002060009054906101000a900473ffffffffffffffffffffffffffffffffffffffff169050919050565b806009600082815260200190815260200160002060009054906101000a900473ffffffffffffffffffffffffffffffffffffffff1673ffffffffffffffffffffffffffffffffffffffff163373ffffffffffffffffffffffffffffffffffffffff1614610de357600080fd5b826011600084815260200190815260200160002060006101000a81548173ffffffffffffffffffffffffffffffffffffffff021916908373ffffffffffffffffffffffffffffffffffffffff160217905550818373ffffffffffffffffffffffffffffffffffffffff163373ffffffffffffffffffffffffffffffffffffffff167f8c5be1e5ebec7d5bd14f71427d1e84f3dd0314c0f7b2291e5b200ac8c7c3b92560405160405180910390a4505050565b600060088281548110610ea457fe5b906000526020600020906003020190504281600201600c9054906101000a900463ffffffff1663ffffffff161115610edb57600080fd5b600c54341015610eea57600080fd5b6000610f026003600c5461221590919063ffffffff16565b90506000610f1c6005600c5461221590919063ffffffff16565b905081341015610f7b57610f5460018460020160009054906101000a900463ffffffff1663ffffffff1661224c90919063ffffffff16565b8360020160006101000a81548163ffffffff021916908363ffffffff16021790555061103e565b813410158015610f8a57508034105b15610fe457610fbd60038460020160009054906101000a900463ffffffff1663ffffffff1661224c90919063ffffffff16565b8360020160006101000a81548163ffffffff021916908363ffffffff16021790555061103d565b80341061103c5761101960058460020160009054906101000a900463ffffffff1663ffffffff1661224c90919063ffffffff16565b8360020160006101000a81548163ffffffff021916908363ffffffff1602179055505b5b5b50505050565b3373ffffffffffffffffffffffffffffffffffffffff166009600083815260200190815260200160002060009054906101000a900473ffffffffffffffffffffffffffffffffffffffff1673ffffffffffffffffffffffffffffffffffffffff16148061110f57503373ffffffffffffffffffffffffffffffffffffffff166011600083815260200190815260200160002060009054906101000a900473ffffffffffffffffffffffffffffffffffffffff1673ffffffffffffffffffffffffffffffffffffffff16145b61111857600080fd5b611123838383612274565b505050565b6000600880549050905090565b61113d611432565b61114657600080fd5b6000611150611409565b90508073ffffffffffffffffffffffffffffffffffffffff166108fc479081150290604051600060405180830381858888f19350505050158015611198573d6000803e3d6000fd5b5050565b6000600c54905090565b600042905090565b60148281600882815481106111bf57fe5b906000526020600020906003020160020160009054906101000a900463ffffffff1663ffffffff1610156111f257600080fd5b836009600082815260200190815260200160002060009054906101000a900473ffffffffffffffffffffffffffffffffffffffff1673ffffffffffffffffffffffffffffffffffffffff163373ffffffffffffffffffffffffffffffffffffffff161461125e57600080fd5b836008868154811061126c57fe5b9060005260206000209060030201600101819055505050505050565b60006009600083815260200190815260200160002060009054906101000a900473ffffffffffffffffffffffffffffffffffffffff169050919050565b6000600a60008373ffffffffffffffffffffffffffffffffffffffff1673ffffffffffffffffffffffffffffffffffffffff168152602001908152602001600020549050919050565b611316611432565b61131f57600080fd5b600073ffffffffffffffffffffffffffffffffffffffff166000809054906101000a900473ffffffffffffffffffffffffffffffffffffffff1673ffffffffffffffffffffffffffffffffffffffff167f8be0079c531659141344cd1fd0a4f28419497f9722a3daafe3b4186f6b6457e060405160405180910390a360008060006101000a81548173ffffffffffffffffffffffffffffffffffffffff021916908373ffffffffffffffffffffffffffffffffffffffff160217905550565b6113e6611432565b6113ef57600080fd5b82600e8190555081600f8190555080601081905550505050565b60008060009054906101000a900473ffffffffffffffffffffffffffffffffffffffff16905090565b60008060009054906101000a900473ffffffffffffffffffffffffffffffffffffffff1673ffffffffffffffffffffffffffffffffffffffff163373ffffffffffffffffffffffffffffffffffffffff1614905090565b6008818154811061149657fe5b9060005260206000209060030201600091509050806000018054600181600116156101000203166002900480601f0160208091040260200160405190810160405280929190818152602001828054600181600116156101000203166002900480156115425780601f1061151757610100808354040283529160200191611542565b820191906000526020600020905b81548152906001019060200180831161152557829003601f168201915b5050505050908060010154908060020160009054906101000a900463ffffffff16908060020160049054906101000a900463ffffffff16908060020160089054906101000a900463ffffffff169080600201600c9054906101000a900463ffffffff16908060020160109054906101000a900461ffff16908060020160129054906101000a900461ffff16905088565b606080600a60008473ffffffffffffffffffffffffffffffffffffffff1673ffffffffffffffffffffffffffffffffffffffff168152602001908152602001600020546040519080825280602002602001820160405280156116435781602001602082028038833980820191505090505b509050600080905060008090505b6008805490508110156116f4578473ffffffffffffffffffffffffffffffffffffffff166009600083815260200190815260200160002060009054906101000a900473ffffffffffffffffffffffffffffffffffffffff1673ffffffffffffffffffffffffffffffffffffffff1614156116e757808383815181106116d257fe5b60200260200101818152505081806001019250505b8080600101915050611651565b508192505050919050565b611707611432565b61171057600080fd5b8060078190555050565b600283816008828154811061172b57fe5b906000526020600020906003020160020160009054906101000a900463ffffffff1663ffffffff16101561175e57600080fd5b846009600082815260200190815260200160002060009054906101000a900473ffffffffffffffffffffffffffffffffffffffff1673ffffffffffffffffffffffffffffffffffffffff163373ffffffffffffffffffffffffffffffffffffffff16146117ca57600080fd5b8484600888815481106117d957fe5b906000526020600020906003020160000191906117f7929190612e2e565b50505050505050565b6000600b60008373ffffffffffffffffffffffffffffffffffffffff1673ffffffffffffffffffffffffffffffffffffffff168152602001908152602001600020549050919050565b611851611432565b61185a57600080fd5b8060068190555050565b61186c611432565b61187557600080fd5b80600c8190555050565b8073ffffffffffffffffffffffffffffffffffffffff163373ffffffffffffffffffffffffffffffffffffffff16146118b757600080fd5b60003390506000600b60003373ffffffffffffffffffffffffffffffffffffffff1673ffffffffffffffffffffffffffffffffffffffff1681526020019081526020016000205490506000600b60003373ffffffffffffffffffffffffffffffffffffffff1673ffffffffffffffffffffffffffffffffffffffff168152602001908152602001600020819055508173ffffffffffffffffffffffffffffffffffffffff166108fc829081150290604051600060405180830381858888f193505050506119c4576000600b60003373ffffffffffffffffffffffffffffffffffffffff1673ffffffffffffffffffffffffffffffffffffffff168152602001908152602001600020819055505b505050565b6060600080600080600080600060088054905089106119e757600080fd5b6119ef612eae565b60088a815481106119fc57fe5b906000526020600020906003020160405180610100016040529081600082018054600181600116156101000203166002900480601f016020809104026020016040519081016040528092919081815260200182805460018160011615610100020316600290048015611aaf5780601f10611a8457610100808354040283529160200191611aaf565b820191906000526020600020905b815481529060010190602001808311611a9257829003601f168201915b50505050508152602001600182015481526020016002820160009054906101000a900463ffffffff1663ffffffff1663ffffffff1681526020016002820160049054906101000a900463ffffffff1663ffffffff1663ffffffff1681526020016002820160089054906101000a900463ffffffff1663ffffffff1663ffffffff16815260200160028201600c9054906101000a900463ffffffff1663ffffffff1663ffffffff1681526020016002820160109054906101000a900461ffff1661ffff1661ffff1681526020016002820160129054906101000a900461ffff1661ffff1661ffff1681525050905080600001518160200151826040015183606001518460c001518560e0015186608001518760a001518797508563ffffffff1695508463ffffffff1694508361ffff1693508261ffff1692508163ffffffff1691508063ffffffff1690509850985098509850985098509850985050919395975091939597565b816009600082815260200190815260200160002060009054906101000a900473ffffffffffffffffffffffffffffffffffffffff1673ffffffffffffffffffffffffffffffffffffffff163373ffffffffffffffffffffffffffffffffffffffff1614611c8157600080fd5b600060088481548110611c9057fe5b90600052602060002090600302019050611ca981612452565b611cb257600080fd5b60038311158015611cc35750600083115b611ccc57600080fd5b60006001841415611ce157600e549050611cfb565b6002841415611cf457600f549050611cfa565b60105490505b5b6000611d076064612479565b9050818111611e8c57611d3a60018460020160109054906101000a900461ffff1661ffff1661251290919063ffffffff16565b8360020160106101000a81548161ffff021916908361ffff160217905550611d8660018460020160009054906101000a900463ffffffff1663ffffffff1661224c90919063ffffffff16565b8360020160006101000a81548163ffffffff021916908363ffffffff160217905550611dbd8560065461221590919063ffffffff16565b600b60003373ffffffffffffffffffffffffffffffffffffffff1673ffffffffffffffffffffffffffffffffffffffff16815260200190815260200160002060008282540192505081905550611e1283612536565b7f3849d67afa411de0fd25744c856a6072622af5d454f7a256fa38859bcbd047af6001604051808215151515815260200180602001828103825260158152602001807f596f757220636869636b656e2068617320776f6e2100000000000000000000008152506020019250505060405180910390a1611f53565b611eb660018460020160129054906101000a900461ffff1661ffff1661251290919063ffffffff16565b8360020160126101000a81548161ffff021916908361ffff160217905550611edd83612536565b7f3849d67afa411de0fd25744c856a6072622af5d454f7a256fa38859bcbd047af6000604051808215151515815260200180602001828103825260168152602001807f596f757220636869636b656e20686173206c6f737421000000000000000000008152506020019250505060405180910390a15b505050505050565b6000600754905090565b60096020528060005260406000206000915054906101000a900473ffffffffffffffffffffffffffffffffffffffff1681565b611fa0611432565b611fa957600080fd5b611fb281612560565b50565b6000806000600e54600f54601054925092509250909192565b6007543414611fdc57600080fd5b6002600a60003373ffffffffffffffffffffffffffffffffffffffff1673ffffffffffffffffffffffffffffffffffffffff16815260200190815260200160002054111561202957600080fd5b600061203482612658565b90506064818161204057fe5b068103905061204f82826126e6565b5050565b816009600082815260200190815260200160002060009054906101000a900473ffffffffffffffffffffffffffffffffffffffff1673ffffffffffffffffffffffffffffffffffffffff163373ffffffffffffffffffffffffffffffffffffffff16146120bf57600080fd5b816009600082815260200190815260200160002060009054906101000a900473ffffffffffffffffffffffffffffffffffffffff1673ffffffffffffffffffffffffffffffffffffffff163373ffffffffffffffffffffffffffffffffffffffff161461212b57600080fd5b8284141561213857600080fd5b60006008858154811061214757fe5b9060005260206000209060030201905060006008858154811061216657fe5b9060005260206000209060030201905061217f82612a1b565b8015612190575061218f81612a1b565b5b61219957600080fd5b60006002548260010154816121aa57fe5b0690506000600282856001015401816121bf57fe5b0490506122016040518060400160405280600a81526020017f4e6577436869636b656e0000000000000000000000000000000000000000000081525082612a68565b61220b8484612da9565b5050505050505050565b6000808314156122285760009050612246565b600082840290508284828161223957fe5b041461224157fe5b809150505b92915050565b60008082840190508363ffffffff168163ffffffff16101561226a57fe5b8091505092915050565b6122c76001600a60008573ffffffffffffffffffffffffffffffffffffffff1673ffffffffffffffffffffffffffffffffffffffff16815260200190815260200160002054612dfb90919063ffffffff16565b600a60008473ffffffffffffffffffffffffffffffffffffffff1673ffffffffffffffffffffffffffffffffffffffff1681526020019081526020016000208190555061235d6001600a60003373ffffffffffffffffffffffffffffffffffffffff1673ffffffffffffffffffffffffffffffffffffffff16815260200190815260200160002054612e1790919063ffffffff16565b600a60003373ffffffffffffffffffffffffffffffffffffffff1673ffffffffffffffffffffffffffffffffffffffff16815260200190815260200160002081905550816009600083815260200190815260200160002060006101000a81548173ffffffffffffffffffffffffffffffffffffffff021916908373ffffffffffffffffffffffffffffffffffffffff160217905550808273ffffffffffffffffffffffffffffffffffffffff168473ffffffffffffffffffffffffffffffffffffffff167fddf252ad1be2c89b69c2b068fc378daa952ba7f163c4a11628f55a4df523b3ef60405160405180910390a4505050565b6000428260020160049054906101000a900463ffffffff1663ffffffff1611159050919050565b60006124916001600d54612dfb90919063ffffffff16565b600d81905550814233600d54604051602001808481526020018373ffffffffffffffffffffffffffffffffffffffff1673ffffffffffffffffffffffffffffffffffffffff1660601b815260140182815260200193505050506040516020818303038152906040528051906020012060001c8161250a57fe5b069050919050565b60008082840190508361ffff168161ffff16101561252c57fe5b8091505092915050565b60035442018160020160046101000a81548163ffffffff021916908363ffffffff16021790555050565b600073ffffffffffffffffffffffffffffffffffffffff168173ffffffffffffffffffffffffffffffffffffffff16141561259a57600080fd5b8073ffffffffffffffffffffffffffffffffffffffff166000809054906101000a900473ffffffffffffffffffffffffffffffffffffffff1673ffffffffffffffffffffffffffffffffffffffff167f8be0079c531659141344cd1fd0a4f28419497f9722a3daafe3b4186f6b6457e060405160405180910390a3806000806101000a81548173ffffffffffffffffffffffffffffffffffffffff021916908373ffffffffffffffffffffffffffffffffffffffff16021790555050565b600080826040516020018082805190602001908083835b60208310612692578051825260208201915060208101905060208303925061266f565b6001836020036101000a0380198251168184511680821785525050505050509050019150506040516020818303038152906040528051906020012060001c905060025481816126dd57fe5b06915050919050565b600060016008604051806101000160405280868152602001858152602001600163ffffffff1681526020014263ffffffff1681526020014263ffffffff1681526020014263ffffffff168152602001600061ffff168152602001600061ffff16815250908060018154018082558091505090600182039060005260206000209060030201600090919290919091506000820151816000019080519060200190612790929190612f13565b506020820151816001015560408201518160020160006101000a81548163ffffffff021916908363ffffffff16021790555060608201518160020160046101000a81548163ffffffff021916908363ffffffff16021790555060808201518160020160086101000a81548163ffffffff021916908363ffffffff16021790555060a082015181600201600c6101000a81548163ffffffff021916908363ffffffff16021790555060c08201518160020160106101000a81548161ffff021916908361ffff16021790555060e08201518160020160126101000a81548161ffff021916908361ffff1602179055505050039050336009600083815260200190815260200160002060006101000a81548173ffffffffffffffffffffffffffffffffffffffff021916908373ffffffffffffffffffffffffffffffffffffffff1602179055506129276001600a60003373ffffffffffffffffffffffffffffffffffffffff1673ffffffffffffffffffffffffffffffffffffffff16815260200190815260200160002054612dfb90919063ffffffff16565b600a60003373ffffffffffffffffffffffffffffffffffffffff1673ffffffffffffffffffffffffffffffffffffffff168152602001908152602001600020819055507f1f0245df64b6ba504325be583e0ea6746dcc8043b3cd2e50f4a45558d0f47af38184846040518084815260200180602001838152602001828103825284818151815260200191508051906020019080838360005b838110156129da5780820151818401526020810190506129bf565b50505050905090810190601f168015612a075780820380516001836020036101000a031916815260200191505b5094505050505060405180910390a1505050565b6000428260020160089054906101000a900463ffffffff1663ffffffff1611158015612a6157504282600201600c9054906101000a900463ffffffff1663ffffffff1611155b9050919050565b600060016008604051806101000160405280868152602001858152602001600163ffffffff168152602001600554420163ffffffff168152602001600554420163ffffffff168152602001600554420163ffffffff168152602001600061ffff168152602001600061ffff16815250908060018154018082558091505090600182039060005260206000209060030201600090919290919091506000820151816000019080519060200190612b1e929190612f13565b506020820151816001015560408201518160020160006101000a81548163ffffffff021916908363ffffffff16021790555060608201518160020160046101000a81548163ffffffff021916908363ffffffff16021790555060808201518160020160086101000a81548163ffffffff021916908363ffffffff16021790555060a082015181600201600c6101000a81548163ffffffff021916908363ffffffff16021790555060c08201518160020160106101000a81548161ffff021916908361ffff16021790555060e08201518160020160126101000a81548161ffff021916908361ffff1602179055505050039050336009600083815260200190815260200160002060006101000a81548173ffffffffffffffffffffffffffffffffffffffff021916908373ffffffffffffffffffffffffffffffffffffffff160217905550612cb56001600a60003373ffffffffffffffffffffffffffffffffffffffff1673ffffffffffffffffffffffffffffffffffffffff16815260200190815260200160002054612dfb90919063ffffffff16565b600a60003373ffffffffffffffffffffffffffffffffffffffff1673ffffffffffffffffffffffffffffffffffffffff168152602001908152602001600020819055507f1f0245df64b6ba504325be583e0ea6746dcc8043b3cd2e50f4a45558d0f47af38184846040518084815260200180602001838152602001828103825284818151815260200191508051906020019080838360005b83811015612d68578082015181840152602081019050612d4d565b50505050905090810190601f168015612d955780820380516001836020036101000a031916815260200191505b5094505050505060405180910390a1505050565b60045442018260020160086101000a81548163ffffffff021916908363ffffffff16021790555060045442018160020160086101000a81548163ffffffff021916908363ffffffff1602179055505050565b600080828401905083811015612e0d57fe5b8091505092915050565b600082821115612e2357fe5b818303905092915050565b828054600181600116156101000203166002900490600052602060002090601f016020900481019282601f10612e6f57803560ff1916838001178555612e9d565b82800160010185558215612e9d579182015b82811115612e9c578235825591602001919060010190612e81565b5b509050612eaa9190612f93565b5090565b6040518061010001604052806060815260200160008152602001600063ffffffff168152602001600063ffffffff168152602001600063ffffffff168152602001600063ffffffff168152602001600061ffff168152602001600061ffff1681525090565b828054600181600116156101000203166002900490600052602060002090601f016020900481019282601f10612f5457805160ff1916838001178555612f82565b82800160010185558215612f82579182015b82811115612f81578251825591602001919060010190612f66565b5b509050612f8f9190612f93565b5090565b612fb591905b80821115612fb1576000816000905550600101612f99565b5090565b9056fea265627a7a72315820d769e207ebc9ca162d761d480a2ebdf1caf72b4e5ca5cf55b5779ac014b26b1164736f6c63430005100032",
  "source": "//SPDX-License-Identifier: MIT\r\npragma solidity >=0.5.0 <0.6.0;\r\n\r\nimport \"./chickenattack.sol\";\r\nimport \"./erc721.sol\";\r\nimport \"./safemath.sol\";\r\n\r\ncontract ChickenOwnership is ChickenAttack, ERC721 {\r\n    using SafeMath for uint256;\r\n\r\n    mapping(uint => address) chickenApprovals;\r\n\r\n    function balanceOf(address _owner) external view returns (uint256) {\r\n        return ownerChickenCount[_owner];\r\n    }\r\n\r\n    function ownerOf(uint256 _tokenId) external view returns (address) {\r\n        return chickenToOwner[_tokenId];\r\n    }\r\n\r\n    function _transfer(\r\n        address _from,\r\n        address _to,\r\n        uint256 _tokenId\r\n    ) private {\r\n        ownerChickenCount[_to] = ownerChickenCount[_to].add(1);\r\n        ownerChickenCount[msg.sender] = ownerChickenCount[msg.sender].sub(1);\r\n        chickenToOwner[_tokenId] = _to;\r\n        emit Transfer(_from, _to, _tokenId);\r\n    }\r\n\r\n    function transferFrom(\r\n        address _from,\r\n        address _to,\r\n        uint256 _tokenId\r\n    ) external payable {\r\n        require(\r\n            chickenToOwner[_tokenId] == msg.sender ||\r\n                chickenApprovals[_tokenId] == msg.sender\r\n        );\r\n        _transfer(_from, _to, _tokenId);\r\n    }\r\n\r\n    function approve(address _approved, uint256 _tokenId)\r\n        external\r\n        payable\r\n        onlyOwnerOf(_tokenId)\r\n    {\r\n        chickenApprovals[_tokenId] = _approved;\r\n        emit Approval(msg.sender, _approved, _tokenId);\r\n    }\r\n\r\n    function getApproved(uint256 _tokenId) external view returns (address) {\r\n        return chickenApprovals[_tokenId];\r\n    }\r\n}\r\n",
  "sourcePath": "C:\\Users\\sgs98\\Desktop\\ei\\CryptoChickens\\client\\contracts\\chickenownership.sol",
  "compiler": {
    "name": "solc",
    "version": "0.5.16+commit.9c3226ce.Emscripten.clang"
  },
  "schemaVersion": "3.4.9",
  "updatedAt": "2022-08-31T09:20:01.746Z",
  "devdoc": {
    "methods": {
      "isOwner()": {
        "return": "true if `msg.sender` is the owner of the contract."
      },
      "owner()": {
        "return": "the address of the owner."
      },
      "renounceOwnership()": {
        "details": "Allows the current owner to relinquish control of the contract."
      },
      "transferOwnership(address)": {
        "details": "Allows the current owner to transfer control of the contract to a newOwner.",
        "params": {
          "newOwner": "The address to transfer ownership to."
        }
      }
    }
  },
  "userdoc": {
    "methods": {
      "renounceOwnership()": {
        "notice": "Renouncing to ownership will leave the contract without an owner. It will not be possible to call the functions with the `onlyOwner` modifier anymore."
      }
    }
  }
}