{
  "contractName": "ChickenFeeding",
  "abi": [
    {
      "anonymous": false,
      "inputs": [
        {
          "indexed": false,
          "internalType": "bool",
          "name": "result",
          "type": "bool"
        },
        {
          "indexed": false,
          "internalType": "string",
          "name": "resultString",
          "type": "string"
        }
      ],
      "name": "BattleResolve",
      "type": "event"
    },
    {
      "anonymous": false,
      "inputs": [
        {
          "indexed": false,
          "internalType": "uint256",
          "name": "chickenId",
          "type": "uint256"
        },
        {
          "indexed": false,
          "internalType": "string",
          "name": "name",
          "type": "string"
        },
        {
          "indexed": false,
          "internalType": "uint256",
          "name": "dna",
          "type": "uint256"
        }
      ],
      "name": "NewChicken",
      "type": "event"
    },
    {
      "anonymous": false,
      "inputs": [
        {
          "indexed": true,
          "internalType": "address",
          "name": "previousOwner",
          "type": "address"
        },
        {
          "indexed": true,
          "internalType": "address",
          "name": "newOwner",
          "type": "address"
        }
      ],
      "name": "OwnershipTransferred",
      "type": "event"
    },
    {
      "constant": true,
      "inputs": [
        {
          "internalType": "uint256",
          "name": "",
          "type": "uint256"
        }
      ],
      "name": "chickenToOwner",
      "outputs": [
        {
          "internalType": "address",
          "name": "",
          "type": "address"
        }
      ],
      "payable": false,
      "stateMutability": "view",
      "type": "function"
    },
    {
      "constant": true,
      "inputs": [
        {
          "internalType": "uint256",
          "name": "",
          "type": "uint256"
        }
      ],
      "name": "chickens",
      "outputs": [
        {
          "internalType": "string",
          "name": "name",
          "type": "string"
        },
        {
          "internalType": "uint256",
          "name": "dna",
          "type": "uint256"
        },
        {
          "internalType": "uint32",
          "name": "level",
          "type": "uint32"
        },
        {
          "internalType": "uint32",
          "name": "readyTime",
          "type": "uint32"
        },
        {
          "internalType": "uint32",
          "name": "breedingTime",
          "type": "uint32"
        },
        {
          "internalType": "uint32",
          "name": "gestationTime",
          "type": "uint32"
        },
        {
          "internalType": "uint16",
          "name": "winCount",
          "type": "uint16"
        },
        {
          "internalType": "uint16",
          "name": "lossCount",
          "type": "uint16"
        }
      ],
      "payable": false,
      "stateMutability": "view",
      "type": "function"
    },
    {
      "constant": false,
      "inputs": [
        {
          "internalType": "string",
          "name": "_name",
          "type": "string"
        }
      ],
      "name": "createRandomChicken",
      "outputs": [],
      "payable": true,
      "stateMutability": "payable",
      "type": "function"
    },
    {
      "constant": true,
      "inputs": [
        {
          "internalType": "uint256",
          "name": "_id",
          "type": "uint256"
        }
      ],
      "name": "getChickenFromId",
      "outputs": [
        {
          "internalType": "string",
          "name": "name",
          "type": "string"
        },
        {
          "internalType": "uint256",
          "name": "dna",
          "type": "uint256"
        },
        {
          "internalType": "uint256",
          "name": "level",
          "type": "uint256"
        },
        {
          "internalType": "uint256",
          "name": "readyTime",
          "type": "uint256"
        },
        {
          "internalType": "uint256",
          "name": "winCount",
          "type": "uint256"
        },
        {
          "internalType": "uint256",
          "name": "lossCount",
          "type": "uint256"
        },
        {
          "internalType": "uint256",
          "name": "breedingTime",
          "type": "uint256"
        },
        {
          "internalType": "uint256",
          "name": "gestationTime",
          "type": "uint256"
        }
      ],
      "payable": false,
      "stateMutability": "view",
      "type": "function"
    },
    {
      "constant": true,
      "inputs": [],
      "name": "getChickenLength",
      "outputs": [
        {
          "internalType": "uint256",
          "name": "",
          "type": "uint256"
        }
      ],
      "payable": false,
      "stateMutability": "view",
      "type": "function"
    },
    {
      "constant": true,
      "inputs": [],
      "name": "getCreateChickenFee",
      "outputs": [
        {
          "internalType": "uint256",
          "name": "",
          "type": "uint256"
        }
      ],
      "payable": false,
      "stateMutability": "view",
      "type": "function"
    },
    {
      "constant": true,
      "inputs": [],
      "name": "getRewards",
      "outputs": [
        {
          "internalType": "uint256",
          "name": "",
          "type": "uint256"
        }
      ],
      "payable": false,
      "stateMutability": "view",
      "type": "function"
    },
    {
      "constant": true,
      "inputs": [],
      "name": "getTime",
      "outputs": [
        {
          "internalType": "uint256",
          "name": "",
          "type": "uint256"
        }
      ],
      "payable": false,
      "stateMutability": "view",
      "type": "function"
    },
    {
      "constant": true,
      "inputs": [],
      "name": "isOwner",
      "outputs": [
        {
          "internalType": "bool",
          "name": "",
          "type": "bool"
        }
      ],
      "payable": false,
      "stateMutability": "view",
      "type": "function"
    },
    {
      "constant": true,
      "inputs": [],
      "name": "owner",
      "outputs": [
        {
          "internalType": "address payable",
          "name": "",
          "type": "address"
        }
      ],
      "payable": false,
      "stateMutability": "view",
      "type": "function"
    },
    {
      "constant": false,
      "inputs": [],
      "name": "renounceOwnership",
      "outputs": [],
      "payable": false,
      "stateMutability": "nonpayable",
      "type": "function"
    },
    {
      "constant": false,
      "inputs": [
        {
          "internalType": "uint256",
          "name": "_fee",
          "type": "uint256"
        }
      ],
      "name": "setCreateChickenFee",
      "outputs": [],
      "payable": false,
      "stateMutability": "nonpayable",
      "type": "function"
    },
    {
      "constant": false,
      "inputs": [
        {
          "internalType": "uint256",
          "name": "_rewards",
          "type": "uint256"
        }
      ],
      "name": "setRewards",
      "outputs": [],
      "payable": false,
      "stateMutability": "nonpayable",
      "type": "function"
    },
    {
      "constant": false,
      "inputs": [
        {
          "internalType": "address payable",
          "name": "newOwner",
          "type": "address"
        }
      ],
      "name": "transferOwnership",
      "outputs": [],
      "payable": false,
      "stateMutability": "nonpayable",
      "type": "function"
    },
    {
      "constant": false,
      "inputs": [
        {
          "internalType": "address",
          "name": "_address",
          "type": "address"
        }
      ],
      "name": "setKittyContractAddress",
      "outputs": [],
      "payable": false,
      "stateMutability": "nonpayable",
      "type": "function"
    },
    {
      "constant": false,
      "inputs": [
        {
          "internalType": "uint256",
          "name": "_chickenId",
          "type": "uint256"
        },
        {
          "internalType": "uint256",
          "name": "_kittyId",
          "type": "uint256"
        }
      ],
      "name": "feedOnKitty",
      "outputs": [],
      "payable": false,
      "stateMutability": "nonpayable",
      "type": "function"
    }
  ],
  "bytecode": "0x60806040526010600155600154600a0a600255620151806003556203f4806004556202a30060055566038d7ea4c68000600655662386f26fc10000600755336000806101000a81548173ffffffffffffffffffffffffffffffffffffffff021916908373ffffffffffffffffffffffffffffffffffffffff1602179055506000809054906101000a900473ffffffffffffffffffffffffffffffffffffffff1673ffffffffffffffffffffffffffffffffffffffff16600073ffffffffffffffffffffffffffffffffffffffff167f8be0079c531659141344cd1fd0a4f28419497f9722a3daafe3b4186f6b6457e060405160405180910390a36116e7806101086000396000f3fe6080604052600436106100f35760003560e01c80638fa07c481161008a578063e33d878d11610059578063e33d878d1461052c578063e8c07ad014610557578063f2fde38b146105d2578063f7b168ec14610623576100f3565b80638fa07c48146102ac578063bb2f642d146103d1578063c7a29c6f1461040c578063d8f7d33414610447576100f3565b80635f4623f1116100c65780635f4623f1146101be578063715018a61461020f5780638da5cb5b146102265780638f32d59b1461027d576100f3565b80630572b0cc146100f857806317a7f4cc146101235780633bc18e6814610168578063557ed1ba14610193575b600080fd5b34801561010457600080fd5b5061010d6106de565b6040518082815260200191505060405180910390f35b34801561012f57600080fd5b506101666004803603604081101561014657600080fd5b8101908080359060200190929190803590602001909291905050506106e8565b005b34801561017457600080fd5b5061017d610873565b6040518082815260200191505060405180910390f35b34801561019f57600080fd5b506101a8610880565b6040518082815260200191505060405180910390f35b3480156101ca57600080fd5b5061020d600480360360208110156101e157600080fd5b81019080803573ffffffffffffffffffffffffffffffffffffffff169060200190929190505050610888565b005b34801561021b57600080fd5b506102246108dd565b005b34801561023257600080fd5b5061023b6109ad565b604051808273ffffffffffffffffffffffffffffffffffffffff1673ffffffffffffffffffffffffffffffffffffffff16815260200191505060405180910390f35b34801561028957600080fd5b506102926109d6565b604051808215151515815260200191505060405180910390f35b3480156102b857600080fd5b506102e5600480360360208110156102cf57600080fd5b8101908080359060200190929190505050610a2d565b60405180806020018981526020018863ffffffff1663ffffffff1681526020018763ffffffff1663ffffffff1681526020018663ffffffff1663ffffffff1681526020018563ffffffff1663ffffffff1681526020018461ffff1661ffff1681526020018361ffff1661ffff16815260200182810382528a818151815260200191508051906020019080838360005b8381101561038f578082015181840152602081019050610374565b50505050905090810190601f1680156103bc5780820380516001836020036101000a031916815260200191505b50995050505050505050505060405180910390f35b3480156103dd57600080fd5b5061040a600480360360208110156103f457600080fd5b8101908080359060200190929190505050610b76565b005b34801561041857600080fd5b506104456004803603602081101561042f57600080fd5b8101908080359060200190929190505050610b91565b005b34801561045357600080fd5b506104806004803603602081101561046a57600080fd5b8101908080359060200190929190505050610bac565b604051808060200189815260200188815260200187815260200186815260200185815260200184815260200183815260200182810382528a818151815260200191508051906020019080838360005b838110156104ea5780820151818401526020810190506104cf565b50505050905090810190601f1680156105175780820380516001836020036101000a031916815260200191505b50995050505050505050505060405180910390f35b34801561053857600080fd5b50610541610df8565b6040518082815260200191505060405180910390f35b34801561056357600080fd5b506105906004803603602081101561057a57600080fd5b8101908080359060200190929190505050610e02565b604051808273ffffffffffffffffffffffffffffffffffffffff1673ffffffffffffffffffffffffffffffffffffffff16815260200191505060405180910390f35b3480156105de57600080fd5b50610621600480360360208110156105f557600080fd5b81019080803573ffffffffffffffffffffffffffffffffffffffff169060200190929190505050610e35565b005b6106dc6004803603602081101561063957600080fd5b810190808035906020019064010000000081111561065657600080fd5b82018360208201111561066857600080fd5b8035906020019184600183028401116401000000008311171561068a57600080fd5b91908080601f016020809104026020016040519081016040528093929190818152602001838380828437600081840152601f19601f820116905080830192505050505050509192919290505050610e52565b005b6000600654905090565b6000600c60009054906101000a900473ffffffffffffffffffffffffffffffffffffffff1673ffffffffffffffffffffffffffffffffffffffff1663e98b7f4d836040518263ffffffff1660e01b8152600401808281526020019150506101406040518083038186803b15801561075e57600080fd5b505afa158015610772573d6000803e3d6000fd5b505050506040513d61014081101561078957600080fd5b81019080805190602001909291908051906020019092919080519060200190929190805190602001909291908051906020019092919080519060200190929190805190602001909291908051906020019092919080519060200190929190805190602001909291905050509091929394959697985090919293949596975090919293949596509091929394955090919293945090919293509091925090915090508091505061086e83826040518060400160405280600581526020017f6b69747479000000000000000000000000000000000000000000000000000000815250610ed7565b505050565b6000600880549050905090565b600042905090565b6108906109d6565b61089957600080fd5b80600c60006101000a81548173ffffffffffffffffffffffffffffffffffffffff021916908373ffffffffffffffffffffffffffffffffffffffff16021790555050565b6108e56109d6565b6108ee57600080fd5b600073ffffffffffffffffffffffffffffffffffffffff166000809054906101000a900473ffffffffffffffffffffffffffffffffffffffff1673ffffffffffffffffffffffffffffffffffffffff167f8be0079c531659141344cd1fd0a4f28419497f9722a3daafe3b4186f6b6457e060405160405180910390a360008060006101000a81548173ffffffffffffffffffffffffffffffffffffffff021916908373ffffffffffffffffffffffffffffffffffffffff160217905550565b60008060009054906101000a900473ffffffffffffffffffffffffffffffffffffffff16905090565b60008060009054906101000a900473ffffffffffffffffffffffffffffffffffffffff1673ffffffffffffffffffffffffffffffffffffffff163373ffffffffffffffffffffffffffffffffffffffff1614905090565b60088181548110610a3a57fe5b9060005260206000209060030201600091509050806000018054600181600116156101000203166002900480601f016020809104026020016040519081016040528092919081815260200182805460018160011615610100020316600290048015610ae65780601f10610abb57610100808354040283529160200191610ae6565b820191906000526020600020905b815481529060010190602001808311610ac957829003601f168201915b5050505050908060010154908060020160009054906101000a900463ffffffff16908060020160049054906101000a900463ffffffff16908060020160089054906101000a900463ffffffff169080600201600c9054906101000a900463ffffffff16908060020160109054906101000a900461ffff16908060020160129054906101000a900461ffff16905088565b610b7e6109d6565b610b8757600080fd5b8060078190555050565b610b996109d6565b610ba257600080fd5b8060068190555050565b606060008060008060008060006008805490508910610bca57600080fd5b610bd26115a8565b60088a81548110610bdf57fe5b906000526020600020906003020160405180610100016040529081600082018054600181600116156101000203166002900480601f016020809104026020016040519081016040528092919081815260200182805460018160011615610100020316600290048015610c925780601f10610c6757610100808354040283529160200191610c92565b820191906000526020600020905b815481529060010190602001808311610c7557829003601f168201915b50505050508152602001600182015481526020016002820160009054906101000a900463ffffffff1663ffffffff1663ffffffff1681526020016002820160049054906101000a900463ffffffff1663ffffffff1663ffffffff1681526020016002820160089054906101000a900463ffffffff1663ffffffff1663ffffffff16815260200160028201600c9054906101000a900463ffffffff1663ffffffff1663ffffffff1681526020016002820160109054906101000a900461ffff1661ffff1661ffff1681526020016002820160129054906101000a900461ffff1661ffff1661ffff1681525050905080600001518160200151826040015183606001518460c001518560e0015186608001518760a001518797508563ffffffff1695508463ffffffff1694508361ffff1693508261ffff1692508163ffffffff1691508063ffffffff1690509850985098509850985098509850985050919395975091939597565b6000600754905090565b60096020528060005260406000206000915054906101000a900473ffffffffffffffffffffffffffffffffffffffff1681565b610e3d6109d6565b610e4657600080fd5b610e4f816110a7565b50565b6007543414610e6057600080fd5b6002600a60003373ffffffffffffffffffffffffffffffffffffffff1673ffffffffffffffffffffffffffffffffffffffff168152602001908152602001600020541115610ead57600080fd5b6000610eb88261119f565b905060648181610ec457fe5b0681039050610ed3828261122d565b5050565b826009600082815260200190815260200160002060009054906101000a900473ffffffffffffffffffffffffffffffffffffffff1673ffffffffffffffffffffffffffffffffffffffff163373ffffffffffffffffffffffffffffffffffffffff1614610f4357600080fd5b600060088581548110610f5257fe5b906000526020600020906003020190506002548481610f6d57fe5b069350600060028583600101540181610f8257fe5b04905060405160200180807f6b69747479000000000000000000000000000000000000000000000000000000815250600501905060405160208183030381529060405280519060200120846040516020018082805190602001908083835b602083106110035780518252602082019150602081019050602083039250610fe0565b6001836020036101000a0380198251168184511680821785525050505050509050019150506040516020818303038152906040528051906020012014156110575760636064828161105057fe5b0682030190505b6110966040518060400160405280600681526020017f4e6f4e616d6500000000000000000000000000000000000000000000000000008152508261122d565b61109f82611562565b505050505050565b600073ffffffffffffffffffffffffffffffffffffffff168173ffffffffffffffffffffffffffffffffffffffff1614156110e157600080fd5b8073ffffffffffffffffffffffffffffffffffffffff166000809054906101000a900473ffffffffffffffffffffffffffffffffffffffff1673ffffffffffffffffffffffffffffffffffffffff167f8be0079c531659141344cd1fd0a4f28419497f9722a3daafe3b4186f6b6457e060405160405180910390a3806000806101000a81548173ffffffffffffffffffffffffffffffffffffffff021916908373ffffffffffffffffffffffffffffffffffffffff16021790555050565b600080826040516020018082805190602001908083835b602083106111d957805182526020820191506020810190506020830392506111b6565b6001836020036101000a0380198251168184511680821785525050505050509050019150506040516020818303038152906040528051906020012060001c9050600254818161122457fe5b06915050919050565b600060016008604051806101000160405280868152602001858152602001600163ffffffff1681526020014263ffffffff1681526020014263ffffffff1681526020014263ffffffff168152602001600061ffff168152602001600061ffff168152509080600181540180825580915050906001820390600052602060002090600302016000909192909190915060008201518160000190805190602001906112d792919061160d565b506020820151816001015560408201518160020160006101000a81548163ffffffff021916908363ffffffff16021790555060608201518160020160046101000a81548163ffffffff021916908363ffffffff16021790555060808201518160020160086101000a81548163ffffffff021916908363ffffffff16021790555060a082015181600201600c6101000a81548163ffffffff021916908363ffffffff16021790555060c08201518160020160106101000a81548161ffff021916908361ffff16021790555060e08201518160020160126101000a81548161ffff021916908361ffff1602179055505050039050336009600083815260200190815260200160002060006101000a81548173ffffffffffffffffffffffffffffffffffffffff021916908373ffffffffffffffffffffffffffffffffffffffff16021790555061146e6001600a60003373ffffffffffffffffffffffffffffffffffffffff1673ffffffffffffffffffffffffffffffffffffffff1681526020019081526020016000205461158c90919063ffffffff16565b600a60003373ffffffffffffffffffffffffffffffffffffffff1673ffffffffffffffffffffffffffffffffffffffff168152602001908152602001600020819055507f1f0245df64b6ba504325be583e0ea6746dcc8043b3cd2e50f4a45558d0f47af38184846040518084815260200180602001838152602001828103825284818151815260200191508051906020019080838360005b83811015611521578082015181840152602081019050611506565b50505050905090810190601f16801561154e5780820380516001836020036101000a031916815260200191505b5094505050505060405180910390a1505050565b60035442018160020160046101000a81548163ffffffff021916908363ffffffff16021790555050565b60008082840190508381101561159e57fe5b8091505092915050565b6040518061010001604052806060815260200160008152602001600063ffffffff168152602001600063ffffffff168152602001600063ffffffff168152602001600063ffffffff168152602001600061ffff168152602001600061ffff1681525090565b828054600181600116156101000203166002900490600052602060002090601f016020900481019282601f1061164e57805160ff191683800117855561167c565b8280016001018555821561167c579182015b8281111561167b578251825591602001919060010190611660565b5b509050611689919061168d565b5090565b6116af91905b808211156116ab576000816000905550600101611693565b5090565b9056fea265627a7a72315820bb7aa685dc78e98b46139f60324300297aacd2f892cb966c14bd2065109ff87564736f6c63430005100032",
  "source": "//SPDX-License-Identifier: MIT\r\npragma solidity >=0.5.0 <0.6.0;\r\n\r\nimport \"./chickenfactory.sol\";\r\n\r\ncontract KittyInterface {\r\n    function getKitty(uint256 _id)\r\n        external\r\n        view\r\n        returns (\r\n            bool isGestating,\r\n            bool isReady,\r\n            uint256 cooldownIndex,\r\n            uint256 nextActionAt,\r\n            uint256 siringWithId,\r\n            uint256 birthTime,\r\n            uint256 matronId,\r\n            uint256 sireId,\r\n            uint256 generation,\r\n            uint256 genes\r\n        );\r\n}\r\n\r\ncontract ChickenFeeding is ChickenFactory {\r\n    KittyInterface kittyContract;\r\n\r\n    modifier onlyOwnerOf(uint _chickenId) {\r\n        require(msg.sender == chickenToOwner[_chickenId]);\r\n        _;\r\n    }\r\n\r\n    function setKittyContractAddress(address _address) external onlyOwner {\r\n        kittyContract = KittyInterface(_address);\r\n    }\r\n\r\n    function _triggerCooldown(Chicken storage _chicken) internal {\r\n        _chicken.readyTime = uint32(now + cooldownTime);\r\n    }\r\n\r\n    function _isReady(Chicken storage _chicken) internal view returns (bool) {\r\n        return (_chicken.readyTime <= now);\r\n    }\r\n\r\n    function feedAndMultiply(\r\n        uint _chickenId,\r\n        uint _targetDna,\r\n        string memory _species\r\n    ) internal onlyOwnerOf(_chickenId) {\r\n        Chicken storage myChicken = chickens[_chickenId];\r\n        _targetDna = _targetDna % dnaModulus;\r\n        uint newDna = (myChicken.dna + _targetDna) / 2;\r\n        if (\r\n            keccak256(abi.encodePacked(_species)) ==\r\n            keccak256(abi.encodePacked(\"kitty\"))\r\n        ) {\r\n            newDna = newDna - (newDna % 100) + 99;\r\n        }\r\n        _createChicken(\"NoName\", newDna);\r\n        _triggerCooldown(myChicken);\r\n    }\r\n\r\n    function feedOnKitty(uint _chickenId, uint _kittyId) public {\r\n        uint kittyDna;\r\n        (, , , , , , , , , kittyDna) = kittyContract.getKitty(_kittyId);\r\n        feedAndMultiply(_chickenId, kittyDna, \"kitty\");\r\n    }\r\n}\r\n",
  "sourcePath": "C:\\Users\\sgs98\\Desktop\\cryptochickens\\contracts\\chickenfeeding.sol",
  "compiler": {
    "name": "solc",
    "version": "0.5.16+commit.9c3226ce.Emscripten.clang"
  },
  "schemaVersion": "3.4.9",
  "updatedAt": "2022-08-30T14:57:28.307Z",
  "devdoc": {
    "methods": {
      "isOwner()": {
        "return": "true if `msg.sender` is the owner of the contract."
      },
      "owner()": {
        "return": "the address of the owner."
      },
      "renounceOwnership()": {
        "details": "Allows the current owner to relinquish control of the contract."
      },
      "transferOwnership(address)": {
        "details": "Allows the current owner to transfer control of the contract to a newOwner.",
        "params": {
          "newOwner": "The address to transfer ownership to."
        }
      }
    }
  },
  "userdoc": {
    "methods": {
      "renounceOwnership()": {
        "notice": "Renouncing to ownership will leave the contract without an owner. It will not be possible to call the functions with the `onlyOwner` modifier anymore."
      }
    }
  }
}